:100000000C94CF000C94B1090C94EC000C9458079C
:100010000C94EC000C94C7060C94EC000C94EC00CF
:100020000C94EC000C944F100C94EC000C94EC002D
:100030000C94EC000C94EC000C94EC000C94EC0090
:100040000C94080D0C94EC000C94EC000C94EC0057
:100050000C94EC000C94EC000C94EC000C94FD005F
:100060000C94EC000C94EC00390B3C0B3F0B420B56
:10007000450B480B4B0B4E0B510B540B570B5A0BAC
:10008000E90EE90EF10EE90EED0EE90EED0EE90EA8
:10009000E90EED0EE90EED0EE5123B133B13F912DE
:1000A000EE12021314131D133B133B133B130B13DC
:1000B000616C61726D206F6E2100616C61726D20E8
:1000C0006F6666005365742064617900646F6E65C5
:1000D00000616C61726D20696E697400636C6F639E
:1000E0006B20696E697400737065616B657220695D
:1000F0006E697400626F6F737420696E6974007644
:10010000666420696E6974007475726E696E67202A
:100110006F6E20616C61726D7377007475726E69B9
:100120006E67206F6E20627574746F6E7300636CFF
:100130006F636B20696E697400210077616B657471
:10014000696D650057414B455245534554007A004F
:10015000623200623300623100736E6F6F7A650045
:1001600062010B10120F0D0E11136C010307080929
:10017000060A050C047701FC60DAF266B6BEE0FE02
:10018000E68301FA3E1A7ADE8EF62E6078AE1CAA5D
:100190002A3ACEF30AB61E3838B86E76DA00112441
:1001A0001FBECFEFD4E0DEBFCDBF12E0A0E0B1E0D4
:1001B000E6E4F8E202C005900D92A234B107D9F747
:1001C00022E0A2E4B2E001C01D92A13FB207E1F734
:1001D0000E940E120C9421140C940000789410923A
:1001E0004802109247022091470230914802281796
:1001F0003907C8F30895A89508951F920F920FB676
:100200000F9211242F933F934F935F936F937F939C
:100210008F939F93AF93BF93EF93FF9300B605FE29
:1002200027C080915402811141C05B9A85B1877DBE
:1002300085B95E988CB58F7B8CBD809152028823E6
:1002400061F06091EA0285E090E00E9413146091F1
:10025000F00286E090E00E94131461E08EE491E0E9
:100260000E94191115BC1092DF021092680019C08B
:10027000809154028823D1F080915202882361F04A
:100280006091EA0285E090E00E9413146091F00210
:1002900086E090E00E94131461E084E491E00E9403
:1002A0001911E0915602F09157020995FF91EF91D3
:1002B000BF91AF919F918F917F916F915F914F917E
:1002C0003F912F910F900FBE0F901F90189581E0D6
:1002D000809354025B9A8CB58F7B8CBD85B1877DF2
:1002E00085B95E9815BC1092DF021092680085B146
:1002F000897F85B98BB18F7C8BB928988AB18F7C27
:100300008AB920985A985298E1E6F0E090E89083F4
:1003100088E08083449A83B7876083BF8895908301
:100320001082449808958EE284B988E48AB989E1FC
:1003300087B984E38BB981E085B995E09093680033
:1003400080936B0080E380936D000895CF93DF93DB
:1003500084E090E00E940B14D8E16D2F0E944413BA
:1003600090935C0285E090E00E940B14CCE36C2F2C
:100370000E9444139093EA0286E090E00E940B14DE
:100380006C2F0E9444139093F00288E090E00E944A
:100390000B146C2F0E9444139093DE0287E090E0D0
:1003A0000E940B146D2F0E9444139093EC0281E085
:1003B00090E00E940B1464E60E9444139093DD02C7
:1003C00082E090E00E940B146DE00E944413909331
:1003D000EF0283E090E00E940B148F718093E002A3
:1003E00091E090935202E6EBF0E08081806280839E
:1003F00085E08093B100909370007894DF91CF9165
:1004000008959C0183709927892B39F4C90164E60A
:1004100070E00E945E13892B61F4C90160E971E00C
:100420000E945E139C0191E0232B09F090E0892F3C
:10043000089581E008958AE090E00E940B14809373
:10044000DF0285B1866085B982E380938000809168
:10045000DF02882329F080918000806880938000EB
:1004600088E1809381008AEF90E0909387008093E9
:10047000860080918600909187009695879590934D
:1004800089008093880090938B0080938A00089560
:100490000F931F93CF93DF9300E810E0F8011082D1
:1004A000C1E8D0E01882299A2A988AE090E00E9458
:1004B000EE002A9A29988AE090E00E94EE0085B129
:1004C000897F85B982EBF801808388E18883DF9199
:1004D000CF911F910F910895CF93C62F9C0140E0BB
:1004E00050E060E472E48FE090E00E94A813309343
:1004F00087002093860080918600909187009695D2
:10050000879590938B0080938A00909389008093C5
:1005100088006C2F662309F18091810082608093AE
:1005200081002FE788E391E0215080409040E1F77F
:1005300000C00000809181008D7F8093810085B193
:10054000897F85B92FE785EB91E02150804090406D
:10055000E1F700C000006150DDCF85B1897F85B92A
:10056000CF9108958B3580F58F3110F48EE12DC039
:10057000843210F483E229C0893210F488E225C065
:100580008E3210F48DE221C0833310F482E31DC05B
:10059000883310F487E319C08D3310F48CE315C051
:1005A000823410F481E411C0873410F486E40DC065
:1005B0008C3410F48BE409C0813510F480E505C05B
:1005C000863510F485E501C08AE587BD83E084BDEA
:1005D00081E085BD84B5806884BD80916E008160B6
:1005E00080936E0078940895282F562F842F3AE038
:1005F000632F0E944413E92FF0E0E958FE4FE49185
:10060000E093E902E82FF0E0E958FE4FE491E0932F
:10061000E8021092E702852F0E944413E92FF0E0D0
:10062000E958FE4FE491E093E602E82FF0E0E95844
:10063000FE4FE491E093E5021092E40280915502AE
:10064000811122C0822F90E00B966CE070E00E9436
:10065000721301966AE070E00E947213FC01E9587F
:10066000FE4FE491E093E302FB01E958FE4F6491F1
:100670006093E2028091E1022C3010F0816001C0B1
:100680008E7F8093E1020895822F68E10E944413D7
:10069000892F632F0E944413E92FF0E0E958FE4FA1
:1006A000E491E093E302E82FF0E0E958FE4FE49193
:1006B000E093E2020895AF92BF92CF92DF92EF9261
:1006C000FF920F931F93CF93DF93C0915C02D09161
:1006D000EA020091F0028AE080934202B12C2AE003
:1006E000A22E3CE3E32EF12C48E1C42ED12C8091C4
:1006F000450280FDD7C080914502811104C08091E0
:100700004402882319F0A092420205C0809142025F
:10071000882309F450C08091450281FF4FC0109298
:100720004502B11018C0C0915C02D091EA0200915C
:10073000F002402F6D2F8C2F0E94F4028091E20274
:1007400081608093E2028091E30281608093E30202
:10075000BB24B39433C081E0B81212C0402F6D2F78
:100760008C2F0E94F4028091E50281608093E50263
:100770008091E60281608093E60292E0B92E1EC06D
:1007800082E0B81212C0402F6D2F8C2F0E94F4020D
:100790008091E80281608093E8028091E9028160A3
:1007A0008093E90283E0B82E09C0C0935C02D09325
:1007B000EA020093F0021092EE0274C080914502AA
:1007C00082FD04C08091440282FF91CF10924502C5
:1007D00081E0B8121FC08C2F90E00196B6010E94F4
:1007E0007213182FC82F402F6D2F0E94F402809192
:1007F000E20281608093E2028091E3028160809353
:10080000E30210935C0260915C0284E090E00E943D
:1008100013143FC082E0B81220C08D2F90E00196E3
:10082000B7010E947213182FD82F402F682F8C2FDA
:100830000E94F4028091E50281608093E50280913C
:10084000E60281608093E6026091EA0285E090E032
:100850000E9413141093EA021CC083E0B81219C05E
:10086000802F90E00196B7010E947213182F082F75
:10087000482F6D2F8C2F0E94F4029091E802916016
:100880009093E8029091E90291609093E9021093AD
:10089000F0028091440282FF2ACF8BE490E00E9414
:1008A000EE0025CFDF91CF911F910F91FF90EF9038
:1008B000DF90CF90BF90AF900895382F862F109281
:1008C000E9021092E8021092E7026AE00E944413E3
:1008D000E92FF0E0E958FE4FE491E093E602E82FBB
:1008E000F0E0E958FE4FE491E093E5021092E40253
:1008F00020915502832F90E021111EC02091E1022A
:100900003C3048F021602093E102E2E9F1E0E4911B
:10091000E093E80208C0E3E8F1E0E491E093E80244
:100920002E7F2093E102EFE8F1E0E491E093E90209
:100930000B966CE070E003C0479668E170E00E949F
:10094000721301966AE070E00E947213FC01E9588C
:10095000FE4FE491E093E302FB01E958FE4F6491FE
:100960006093E2020895CF92DF92EF92FF920F938D
:100970001F93CF93DF93C091EC02D091DE028AE007
:100980008093420210E00AE08CE3C82ED12C98E15B
:10099000E92EF12C8091450280FDA7C0809145028F
:1009A000811104C080914402882319F0009342020F
:1009B0001EC08091420281111AC01092EE02C093B3
:1009C000EC02D093DE026091EC0287E090E00E949E
:1009D00013146091DE0288E090E0DF91CF911F91C7
:1009E0000F91FF90EF90DF90CF900C9413148091B3
:1009F000450281FF39C010924502111110C06D2FC0
:100A00008C2F0E945D048091E20281608093E2025B
:100A10008091E30281608093E30211E025C01130F0
:100A200081F46D2F8C2F0E945D048091E50281601E
:100A30008093E5028091E60281608093E60212E0F5
:100A400013C0C093EC02D093DE026091EC0287E009
:100A500090E00E9413146091DE0288E090E00E9412
:100A600013141092EE0241C08091450282FD04C031
:100A70008091440282FF8ECF109245021130A9F47A
:100A80008C2F90E00196B7010E947213C82F6D2F32
:100A90000E945D048091E20281608093E202809175
:100AA000E30281608093E30217C01230A9F48D2F16
:100AB00090E00196B6010E947213D82F682F8C2FF8
:100AC0000E945D049091E50291609093E5029091FF
:100AD000E60291609093E6028091440282FF5ACF31
:100AE0008BE490E00E94EE0055CFDF91CF911F91F3
:100AF0000F91FF90EF90DF90CF900895282F862FD1
:100B0000E5E8F1E0E491E093E902E6E9F1E0E4915F
:100B1000E093E802E7E9F1E0E491E093E7026AE0BC
:100B20000E944413E92FF0E0E958FE4FE491E0936E
:100B3000E602E82FF0E0E958FE4FE491E093E50289
:100B40001092E402822F022E000C990B97FF03C033
:100B50009195819591096AE070E00E947213FC0101
:100B6000E958FE4FE491E093E302FB01E958FE4FA0
:100B700064916093E2028091E10227FD02C08D7FC3
:100B800001C082608093E1020895AF92BF92DF922C
:100B9000EF92FF920F931F93CF93DF93C0910001C9
:100BA000D09050028AE08093420210E00AE08CE389
:100BB000A82EB12C99E1E92EF12C8091450280FDFF
:100BC00099C080914502811104C08091440288231C
:100BD00019F00093420204C080914202882351F12F
:100BE0008091450281FF29C010924502111110C069
:100BF0006D2D8C2F0E947E058091E2028160809392
:100C0000E2028091E30281608093E30211E015C06B
:100C1000113081F46D2D8C2F0E947E058091E502AC
:100C200081608093E5028091E60281608093E60214
:100C300012E003C01092EE025DC08091450282FD79
:100C400004C08091440282FFB8CF10924502113057
:100C500049F58C2FCC0F990B0D96B7010E9472139A
:100C6000C4EFC80F6D2D8C2F0E947E058091E2028B
:100C700081608093E2028091E30281608093E302CD
:100C8000C09300016C2F8DE090E00E94131481E06E
:100C900091E00E943C118C2F0C2E000C990B0E94AD
:100CA00076111FC01230E9F48D2D90E00196B50148
:100CB0000E947213D82FD82E682F8C2F0E947E0589
:100CC0009091E50291609093E5029091E602916027
:100CD0009093E602D09350026D2F8EE090E00E9438
:100CE00013148091440282FF68CF8BE490E00E944D
:100CF000EE0063CFDF91CF911F910F91FF90EF90A6
:100D0000DF90BF90AF900895CF93DF931092E102F0
:100D1000A1EEB2E0EC01E991CE01EE23E1F02FE982
:100D20002E0F2A3120F4F0E0EE5DFE4F07C020EDDB
:100D30002E0F2A3040F4F0E0E95BFE4FE49111966B
:100D4000EC93119703C011961C9211971196D2E063
:100D5000A93EBD07F9F6DF91CF91089588E592E0AD
:100D600090934A028093490261E089E591E00E94F4
:100D700019118AE191E00E94840689E08093EE02D5
:100D800088EE93E00E94EE001092EE0208951F920A
:100D90000F920FB60F9211242F933F934F935F93AF
:100DA0006F937F938F939F93AF93BF93EF93FF9333
:100DB0001092680078944D9920C08091460280FD81
:100DC00021C08AE090E00E94EE004D995DC00E9433
:100DD00048028091ED02811125C080914602816018
:100DE000809346028091450281608093450261E0D4
:100DF00086E591E00E94191105C0809146028E7F20
:100E0000809346024C9939C08091460282FD3CC0D5
:100E10008AE090E00E94EE004C9936C082E0809318
:100E2000430205C00E94AE062FC04C9905C08091B8
:100E300043028111FACF16C00E94480280914602F7
:100E40008B7F809346028091ED028111EBCF61E0B0
:100E500083E591E00E94191180914502846080939E
:100E6000450212C0809146028460809346028091C0
:100E7000440284608093440207C01092440280912F
:100E800046028B7F8093460285E080936800FF9145
:100E9000EF91BF91AF919F918F917F916F915F91F2
:100EA0004F913F912F910F900FBE0F901F9018956B
:100EB0001F920F920FB60F9211242F933F934F93CF
:100EC0005F936F937F938F939F93AF93BF93EF93B2
:100ED000FF93109268007894189923C0809146027D
:100EE00081FD24C08AE090E00E94EE0018991EC0A7
:100EF0000E9448028091ED02882319F00E94AE06FC
:100F000015C080914602826080934602809145021E
:100F100082608093450261E080E591E00E941911B2
:100F200005C0809146028D7F8093460285E08093C4
:100F30006800FF91EF91BF91AF919F918F917F9149
:100F40006F915F914F913F912F910F900FBE0F9036
:100F50001F9018957F928F929F92AF92BF92CF92DF
:100F6000DF92EF92FF920F931F93CF93DF938AE06C
:100F70008093420289E090E00E940B14C82F20E089
:100F8000DAE01EE10AE585E5F82E90E5E92E3BE47E
:100F9000D32E46E4C42E51E4B52E6CE3A62E77E39F
:100FA000972EE2E38E2EFDE27F2E80914502811185
:100FB00004C080914402882319F0D093420204C0F7
:100FC00080914202882331F18091450280FD91C0D9
:100FD0008091450281FF32C01092450221111AC052
:100FE00083E291E00E9484068C2F6D2F0E944413AF
:100FF000E82FF0E0E958FE4FE491E160E093E80269
:10100000E92FF0E0E958FE4FE491E160E093E90256
:1010100021E014C01092EE026C2F89E090E0DF9185
:10102000CF911F910F91FF90EF90DF90CF90BF90E5
:10103000AF909F908F907F900C94131480914502F5
:1010400082FD04C08091440282FFAFCF109245021E
:10105000213011F020E0A9CFCB5FCC3508F0CEE1F4
:101060008C2F6D2F0E944413E82FF0E0E958FE4FBB
:10107000E491E160E093E802E92FF0E0E958FE4FE7
:10108000E491E160E093E902CF3188F1C43210F4D9
:1010900083E203C0C93218F488E287BD86CFCE321E
:1010A00010F477BC82CFC33310F487BC7ECFC83333
:1010B00010F497BC7ACFCD3310F4A7BC76CFC234EE
:1010C00010F4B7BC72CFC73410F4C7BC6ECFCC34A9
:1010D00010F4D7BC6ACFC13510F4E7BC66CFC63573
:1010E00010F4F7BC62CFCB3511F007BD5ECF17BD52
:1010F0005CCFDF91CF911F910F91FF90EF90DF9028
:10110000CF90BF90AF909F908F907F9008950F9356
:101110001F93CF93DF938AE0809342028AE090E0AE
:101120000E940B14D82FC0E00AE080914502811183
:1011300004C080914402882319F00093420204C045
:1011400080914202882369F18091450280FD65C04B
:101150008091450281FF28C010924502C11121C033
:10116000DD2351F08AE291E00E9484068091E6023C
:1011700081608093E60204C083E391E00E948406CC
:101180008091E70281608093E7028091E8028160AC
:101190008093E8028091E90281608093E902C1E0D6
:1011A00003C01092EE0239C08091450282FFBDCF8C
:1011B00010924502C13011F0C0E0B7CF11E0DD233D
:1011C00031F010E083E391E00E94840609C08AE2D6
:1011D00091E00E9484068091E60281608093E6029D
:1011E0008091E70281608093E7028091E80281604C
:1011F0008093E8028091E90281608093E902612F87
:101200008AE090E00E9413140E941B0261E080EAD1
:101210009FE00E946C02D12F88CFDF91CF911F9168
:101220000F910895CF93DF938AE0809342028BE081
:1012300090E00E940B1480935502C0E0DAE08091A8
:101240004502811104C080914402882319F0D09393
:10125000420204C0809142028823C9F08091450275
:1012600080FD39C08091450281FF14C01092450273
:10127000C1110DC080915502811103C08CE391E032
:1012800002C085E491E00E948406C1E003C0109290
:10129000EE0221C08091450282FFD1CF109245021B
:1012A000C13011F0C0E0CBCF8091550291E08111A7
:1012B00090E090935502882319F08CE391E002C0EE
:1012C00085E491E00E948406609155028BE090E0F5
:1012D0000E941314B4CFDF91CF9108954A9B23C08D
:1012E0008091EB0281113CC081E08093EB0210926F
:1012F0004A02109249028EE491E00E94840689E03D
:101300008093EE0288EE93E00E94EE006091DE0290
:101310008091EC020E945D0488EE93E00E94EE0052
:101320001092EE0208958091EB028823C9F010928A
:10133000EB0210924A02109249028091ED0288233A
:1013400079F061E08AEB90E00E9419111092ED02B1
:10135000809181008D7F8093810085B1866085B901
:1013600008951F920F920FB60F9211242F933F935F
:101370004F935F936F937F938F939F93AF93BF939D
:10138000CF93EF93FF9389E60E940511C9B178943A
:101390008AE090E00E94EE0089B1C4702C2F30E00A
:1013A000847090E02817390711F40E946E09FF91AC
:1013B000EF91CF91BF91AF919F918F917F916F915D
:1013C0005F914F913F912F910F900FBE0F901F9003
:1013D0001895809154028823E1F180E880936100A0
:1013E0001092610061E08BE391E00E94191110926C
:1013F00054028FE39CE90197F1F700C0000000B6AA
:1014000005FC27C00E94930189E090E00E940B1424
:101410000E94B20281E58CBD5B9843988AE090E01F
:101420000E940B148093DF020E941B02A8950E9469
:101430006E0961E080E793E00E946C0261E080EE5B
:1014400096E00E946C0261E080EC9DE00E946C02DC
:10145000A8950895CF93DF9381117CC01092E1028B
:1014600082E08093E4028093E7028091550281112B
:101470002BC08091EF022AE0622F0E945013E82FC8
:10148000880FFF0BE958FE4FE491E093E202809150
:10149000EF02622F0E945013E92F990FFF0BE958BA
:1014A000FE4FE491E093E3028091E002622F0E94FC
:1014B0005013E82F880FFF0BE958FE4FE491E0939B
:1014C000E5028091E0022AC08091E0022AE0622FCA
:1014D0000E945013E82F880FFF0BE958FE4FE4914C
:1014E000E093E2028091E002622F0E945013E92F04
:1014F000990FFF0BE958FE4FE491E093E3028091CE
:10150000EF02622F0E945013E82F880FFF0BE9585B
:10151000FE4FE491E093E5028091EF02622F0E947A
:101520005013E92F990FFF0BE958FE4FE491E09318
:10153000E6028091DD022AE0622F0E945013E82F1C
:10154000880FFF0BE958FE4FE491E093E802809189
:10155000DD02C4C0813009F0CCC0E091EF020E2E54
:10156000000CFF0B2091DD02022E000C330B2053E8
:10157000384F8091EF0283301CF43C9621503109A2
:101580008091E0021092E8021092E902082E000C0D
:10159000990B0196820F931FEF01CC0FDD1FC80F2F
:1015A000D91FA9015695479556954795C40FD51F44
:1015B000C90160E971E00E945E13C60FD71FC9011F
:1015C00064E670E00E945E139E01261B370B319685
:1015D00046E04E9FC0014F9F900D11246AE070E0DD
:1015E0000E945E13C901860F971F67E070E00E949A
:1015F0005E1383309105B1F030F48130910561F0D4
:10160000029769F006C08530910591F070F0069759
:1016100091F087E591E011C08EE591E00EC085E67E
:1016200091E00BC08DE691E008C086E791E005C02F
:101630008FE791E002C086E891E00E94840688EE80
:1016400093E00E94EE001092E5021092E6021092E2
:10165000E702E091EF028E2FEE0F990BAA0BBB0B66
:10166000FC013197EC30F10548F5EC5CFF4F0C9430
:10167000C7138FE891E020C083E991E01DC087E99E
:1016800091E01AC08DE991E017C083EA91E014C09F
:1016900087EA91E011C08CEA91E00EC081EB91E005
:1016A0000BC087EB91E008C08CEB91E005C082ECA9
:1016B00091E002C088EC91E00E9484068091E002F3
:1016C0002AE0622F0E945013E82F880FFF0BE95881
:1016D000FE4FE491E093E8028091E002622F0E94C5
:1016E0005013E92F990FFF0BE958FE4FE491E09357
:1016F000E902DF91CF9108950F931F93CF93DF936A
:101700008AE080934202C0E0DAE011E004E68091D2
:101710004502811104C080914402882319F0D093BE
:10172000420205C080914202882309F466C080917C
:10173000450280FDF5C08091450281FF61C0109295
:101740004502C1111AC080915502882339F061E029
:1017500084EC90E00E941911C2E001C0C1E080E079
:101760000E942A0A8091E20281608093E2028091C5
:10177000E30281608093E30243C0C13029F4809189
:101780005502882339F01EC0C23069F58091550298
:101790008130A9F480915502811102C0C2E001C0DC
:1017A000C1E080E00E942A0A8091E5028160809376
:1017B000E5028091E60281608093E60221C08823E1
:1017C00019F011C0813079F480E00E942A0A8091DA
:1017D000E80281608093E8028091E9028160809351
:1017E000E902C3E00DC083E68093EE0280E00E9430
:1017F0002A0A8CED95E00E94EE001092EE0290C055
:101800008091450282FD04C08091440282FF7FCF17
:1018100010924502C13061F58091EF028F5F809395
:10182000EF028091EF028D3014F0C093EF0280E060
:101830000E942A0A8091550281110BC08091E20218
:1018400081608093E2028091E30281608093E302F1
:101850000AC08091E50281608093E5028091E602F2
:1018600081608093E6026091EF0282E090E04DC0DB
:10187000C23061F58091E0028F5F8093E002809139
:10188000E002803214F01093E00280E00E942A0A05
:1018900080915502813059F48091E20281608093F9
:1018A000E2028091E30281608093E3020AC08091AA
:1018B000E50281608093E5028091E6028160809379
:1018C000E6026091E00283E090E01FC0C330F9F4CB
:1018D0008091DD028F5F8093DD028091DD02602FB9
:1018E0000E9450139093DD0280E00E942A0A8091AA
:1018F000E80281608093E8028091E9028160809330
:10190000E9026091DD0281E090E00E941314809171
:10191000440282FFFCCE8CE390E00E94EE00F7CE02
:10192000DF91CF911F910F91089581E58CBD0895AE
:101930008EBD0DB407FEFDCF0895CF93DF93EB016D
:10194000F8940E94980C8D2F0E94980C8C2F0E9466
:10195000980C409A40987894DF91CF9108958F9297
:101960009F92AF92BF92CF92DF92EF92FF92462F5B
:10197000E82FF0E0E459FE4FE49161E070E002C02E
:10198000660F771FEA95E2F7072E000C880B990B7C
:10199000C0905802D0905902E0905A02F0905B0239
:1019A00020E030E050E0812C912C54018394FA0126
:1019B000022E02C0F595E7950A94E2F7E0FF11C008
:1019C000F901EE59FE4FE4917501640104C0CC0C9D
:1019D000DD1CEE1CFF1CEA95D2F76C297D298E29AF
:1019E0009F292F5F3F4F2830310509F7C0925802D9
:1019F000D0925902E0925A02F0925B02FF90EF906F
:101A0000DF90CF90BF90AF909F908F900C949D0CE3
:101A10001F920F920FB60F9211242F933F934F9363
:101A20005F936F937F938F939F93AF93BF93EF9346
:101A3000FF937894A89580914D0290914E02019663
:101A40008132910528F490934E0280934D0268C034
:101A500010924E0210924D028091470290914802DE
:101A60000196909348028093470280914F028930FB
:101A700010F010924F0280914F02E82FF0E0EF51EA
:101A8000FD4F60810E94AF0C80914F028F5F809369
:101A90004F028091ED02882309F442C080914902EF
:101AA00090914A02892BE1F580914B0290914C0272
:101AB00001968536910528F490934C0280934B0251
:101AC0002FC010924C0210924B028AEF90E090933C
:101AD000870080938600809186009091870096957C
:101AE000879590938B0080938A00909389008093D0
:101AF00088008091ED02807F49F08091ED028F7027
:101B00008093ED02809181008D7F08C08091ED026D
:101B1000806F8093ED0280918100826080938100CC
:101B2000FF91EF91BF91AF919F918F917F916F91B5
:101B30005F914F913F912F910F900FBE0F901F908B
:101B400018958091C00080780895FC019281990FCA
:101B50009056392F330F330F292F230F9381905332
:101B6000920F8481880F8056282F220F220F820F18
:101B700025812053280F409100018081880F8056D5
:101B8000382F330F330F830F50ED540F3181350F42
:101B9000830F80935C028091500247FF02C0981B24
:101BA00001C0980F9093EA022093F0020895FC017F
:101BB0008081880F8056382F330F330F830F318188
:101BC0003053380F8281880F8056282F220F220F22
:101BD000820F23812053280F8481880F8056982FED
:101BE000990F990F890F95819053980F1092530276
:101BF000109252023093E0022093EF029093DD02A4
:101C000008959091EB029923B1F09091EC02981312
:101C100012C08091DE0286130EC041110CC061E03B
:101C200080EB90E00E94191181E08093ED02109208
:101C30004A021092490208958091F0028C3354F0C8
:101C40008091F0028C538093F0028091EA028F5FC2
:101C50008093EA028091F00287FF0AC08091F0022F
:101C6000845C8093F0028091EA0281508093EA02C2
:101C70008091EA028C33B4F08091EA028C53809315
:101C8000EA0280915C028F5F80935C0260915C024B
:101C900084E090E00E9413146091EA0285E090E0F5
:101CA0000E9413148091EA0287FF16C08091EA0215
:101CB000845C8093EA0280915C02815080935C0294
:101CC00060915C0284E090E00E9413146091EA024B
:101CD00085E090E00E94131480915C02883184F0CA
:101CE00080915C02885180935C028091E0028F5F5A
:101CF0008093E0026091E00283E090E00E94131480
:101D000080915C0287FF10C080915C02885E8093A6
:101D10005C028091E00281508093E0026091E002D9
:101D200083E090E00E9413148091E00280327CF501
:101D30008091E0028F3181F48091EF02843039F19B
:101D40008091EF02863019F18091EF028930F9F02D
:101D50008091EF028B30D9F08091E0028E3121F436
:101D60008091EF02823099F08091E0028D31E9F4A8
:101D70008091EF028230C9F48091DD02082E000CC0
:101D8000990B8053984F0E94010281110EC081E08F
:101D90008093E0028091EF028F5F8093EF02609169
:101DA000EF0282E090E00E9413148091E002181686
:101DB000DCF1E091EF028E2FEE0F990BAA0BBB0B1B
:101DC000FC013197EC30F10530F5E05CFF4F0C94ED
:101DD000C7138091E002815E16C08091E002825EAE
:101DE00012C08091DD02082E000C990B8053984F91
:101DF0000E940102882321F08091E002835E03C0EB
:101E00008091E002845E8093E0028091EF02815035
:101E10008093EF0203C081E08093E0026091EF02C3
:101E200082E090E00E9413148091EF028D3074F0F4
:101E30008091DD028F5F8093DD0281E08093EF026D
:101E40006091DD0281E090E00E9413148091EF0226
:101E50001816B4F08091EF02845F8093EF028091B6
:101E6000DD0281508093DD026091EF0282E090E01C
:101E70000E9413146091DD0281E090E00C94131431
:101E80000895EF92FF920F931F93CF93DF93CDB7F7
:101E9000DEB72F970FB6F894DEBF0FBECDBF80918F
:101EA000C6008F8790915102911105C0843209F0CC
:101EB000CEC081E020C0EDE5F2E001900020E9F71E
:101EC0003197ED55F240E038F10550F080E8EDE54E
:101ED000F2E0DF011D928A95E9F710925102B7C036
:101EE000369761F46EEC71E08DE592E00E94F2139A
:101EF000892B61F782E080935102A0C08A3209F0F9
:101F00009DC0923019F783EE91E00E943C118DE55F
:101F100092E00E943C116CE270E08DE592E00E943C
:101F2000E713FC01319626E0DE01189601900D9230
:101F30002A95E1F71E8608E010E06CE270E0019659
:101F40000E94E71301501109C1F7FC01319686E0A8
:101F5000DE01119601900D928A95E1F71F822D8185
:101F600030E0205331098AE0829FA001839F500D09
:101F700011249E81892F90E0C097840F951F0A97A6
:101F80000CF4A4CF00915C021091EA028091F0025F
:101F9000CE0108960E94A50DCE0101960E94D70D94
:101FA0000E941C0E20915C028091EA02082E000C17
:101FB000990BBCE32B02800D911D1124E02EF12C16
:101FC000212F30E04CE3049F200D311D112410918E
:101FD0005C020091EA02AC01421B530B57FF16C092
:101FE000FC01E056FA4FE217F30780F0BA016056A1
:101FF0007A4F77FF03C071956195710951954195AD
:1020000051096417750714F4185ECF0128173907B2
:1020100008F05CCF812F012E000C990B8E159F05C7
:102020000CF454CF07FD07C040E0602F812F0E94C1
:10203000010E0150F7CF11500BE3ECCF41E050E01F
:10204000BE01615F7F4F8DE592E00E94FB132F96EA
:102050000FB6F894DEBF0FBECDBFDF91CF911F91B9
:102060000F91FF90EF90089580915C02873054F0BB
:1020700081E08093ED0262E080EA9FE00E946C02C2
:102080001092ED02089580915C0287302CF089E077
:1020900090E00E940B1401C08EE10C94B2021F92DA
:1020A0000F920FB60F9211242F933F934F935F938C
:1020B0006F937F938F939F93AF93BF93EF93FF9310
:1020C00080E880936100109261008091F0028F5F40
:1020D0008093F0020E941C0E80915402811160C016
:1020E0008091EE0281112CC080915302882349F027
:1020F0008091F00280FF05C089E392E00E9484068F
:1021000014C04091F0026091EA0280915C020E944A
:10211000F4028091EA02811108C08091F0028111DD
:1021200004C00E9434100E9443109091EB028091F1
:10213000E102992311F0826001C08D7F8093E1025A
:102140004091F0026091EA0280915C020E94010ECF
:1021500080914202882329F080914202815080932D
:10216000420280914302882329F0809143028150EA
:10217000809343022091490230914A022115310592
:1021800079F02150310930934A022093490280911D
:10219000E10220FF02C0826001C08D7F8093E102D6
:1021A000FF91EF91BF91AF919F918F917F916F912F
:1021B0005F914F913F912F910F900FBE0F901F9005
:1021C0001895882331F081509EE100009150E9F785
:1021D000F8CF0895882359F02FEF39E698E1215080
:1021E00030409040E1F700C000008150F3CF0895E7
:1021F0009093C5008093C40088E18093C1008EE075
:102200008093C200519A509808959091C00095FF14
:10221000FCCF8093C60080E090E008958091C000DC
:1022200087FFFCCF8091C60008958091C000807820
:1022300008950F931F93CF93DF938C01D62FC0E0A7
:10224000F801EC0FF11D8491882329F084910E94FC
:102250000511CF5FF5CFDD2351F08AE00E94051113
:102260008DE0DF91CF911F910F910C940511DF91BB
:10227000CF911F910F910895CF93DF93EC01899136
:10228000882319F00E940511FACFDF91CF910895AC
:10229000CF93C82F82958F708A3010F4805D01C073
:1022A000895A0E9405118C2F8F708A3010F4805D3E
:1022B00001C0895ACF910C940511CF93C82F892F53
:1022C0000E9448118C2FCF910C944811CF92DF922D
:1022D000EF92FF926B017C01C7010E945D11C60164
:1022E000FF90EF90DF90CF900C945D11AF92BF9272
:1022F000DF92EF92FF920F931F93CF93DF937C01B6
:1023000005E010E020E0C0E1D7E28AE0A82EB12C81
:10231000C701BE010E945E13D62E611105C02111B6
:1023200003C0C130D10529F480E38D0D0E94051151
:1023300021E0DC9EC001DD9E900D1124E81AF90A0F
:10234000CE01B5010E945E13EB010150110901F7A6
:10235000DF91CF911F910F91FF90EF90DF90BF9091
:10236000AF9008954F925F926F927F928F929F925B
:10237000AF92BF92CF92DF92EF92FF920F931F9393
:10238000CF93DF934B015C01CAE0D0E000E0C12CA9
:102390008AECD82E8AE9E82E8BE3F82E9AE0492EB3
:1023A000512C612C712CC501B401A70196010E942A
:1023B0008613122F211108C0011106C081E0C81632
:1023C000D104E104F10429F480E3810F0E94051196
:1023D00001E0A12FB0E0A70196010E94CD13861A5B
:1023E000970AA80AB90AC701B601A30192010E947F
:1023F000861369017A012197B1F6DF91CF911F9180
:102400000F91FF90EF90DF90CF90BF90AF909F9093
:102410008F907F906F905F904F90089515BC569A63
:102420005E9884B714BE90E00E945D110FB6F894D8
:10243000A895809160008861809360001092600090
:102440000FBE9FE088E10FB6F894A89580936000D6
:102450000FBE90936000A895C1E0C0935302109204
:10246000520287E690E00E94F81061E089E391E073
:102470000E94191185ED91E00E943C1186EE91E0D9
:102480000E943C1180E890E00E94761183EE91E07A
:102490000E943C1188E480BF8FEC97E00197F1F730
:1024A00000C0000000B605FE0BC080B7806180BF91
:1024B00061E08EE291E00E9419110E94A6015AC0CB
:1024C0000E9493015B9861E08BE191E00E941911F9
:1024D00061E088E091E00E941911C0936900CDBBD2
:1024E0001092EE0261E08FEF90E00E94191181E5F9
:1024F0008CBD61E084EF90E00E94191189E090E0CA
:102500000E940B140E94B20278948DE090E00E9429
:102510000B1480930001845F893110F01092000148
:102520008EE090E00E940B14809350028D3310F0E7
:10253000109250028BE090E00E940B1480935502A1
:1025400061E087EE90E00E9419110E941B0261E099
:1025500080EA9FE00E946C0261E08CED90E00E94B6
:1025600019110E94A60161E081ED90E00E9419110D
:102570000E946E0961E08CEC90E00E941911C3E6A4
:10258000D8E017E006E08BE0F82E95E0E92E23E096
:10259000D22E34E0C32EA89500B605FE03C00E94DB
:1025A0006701F9CF8091450280FF50C0109245022B
:1025B000E091EE028E2F90E08C30910508F05BC028
:1025C000FC01E45BFF4F0C94C713C092EE0289EF4D
:1025D00091E00E9484060E94B3044FC0D092EE02A4
:1025E00083E092E00E9484060E945B0310925302F3
:1025F00044C0E092EE028CE092E00E9484060E94C9
:102600007C0B3BC0F092EE0285E192E00E948406D2
:102610000E94C50532C00093EE028EE192E00E9456
:1026200084060E94AA0729C01093EE0287E292E076
:102630000E9484060E94870820C0D093EE0280E3A7
:1026400092E00E9484060E94120917C08091450200
:1026500081FD04C08091450282FF0FC010924502A7
:10266000C093EE0281E00E942A0AA8958CED95E0C5
:102670000E94EE00A8951092EE028091C00087FFA4
:102680008ACF0E94410F87CF991B79E004C0991F20
:10269000961708F0961B881F7A95C9F780950895BC
:1026A00087FB082E062687FD819567FD61950E94B0
:1026B00044130EF4919507FC81950895AA1BBB1B4A
:1026C00051E107C0AA1FBB1FA617B70710F0A61B32
:1026D000B70B881F991F5A95A9F780959095BC0153
:1026E000CD01089597FB072E16F4009407D077FDCF
:1026F00009D00E945E1307FC05D03EF490958195A9
:102700009F4F0895709561957F4F0895A1E21A2E0D
:10271000AA1BBB1BFD010DC0AA1FBB1FEE1FFF1F85
:10272000A217B307E407F50720F0A21BB30BE40BD5
:10273000F50B661F771F881F991F1A9469F760951C
:102740007095809590959B01AC01BD01CF010895D6
:10275000052E97FB1EF400940E94BF1357FD07D06F
:102760000E94861307FC03D04EF40C94BF135095BF
:102770004095309521953F4F4F4F5F4F089590956D
:102780008095709561957F4F8F4F9F4F0895EE0F05
:10279000FF1F0590F491E02D09940E94D813A59F86
:1027A000900DB49F900DA49F800D911D112408954C
:1027B000A29FB001B39FC001A39F700D811D112482
:1027C000911DB29F700D811D1124911D0895FC0172
:1027D0008191861721F08823D9F799270895319799
:1027E000CF010895FB01DC018D910190801901104A
:1027F000D9F3990B0895FB01DC010D900020E9F756
:1028000011974150504028F0019000200D92C9F7D7
:1028100008951C920895F999FECF92BD81BDF89A52
:10282000992780B50895262FF999FECF1FBA92BD3A
:1028300081BD20BD0FB6F894FA9AF99A0FBE0196A1
:062840000895F894FFCF9B
:10284600FA0A0D54696D657A6F6E65206F66667358
:10285600657420686F75723A0900736E6F6F7A69D6
:102866006E670062726974652000766F6C20686915
:10287600676800766F6C20206C6F77007573612D2A
:1028860031326872006575722D3234687200616C7F
:1028960061726D206F6E0073756E646179006D6F85
:1028A6006E64617900747565736461790077656437
:1028B6006E73646179007468757273646179006619
:1028C6007269646179007361747572646179006A12
:1028D600616E00666562006D6172636800617072A8
:1028E600696C006D6179006A756E65006A756C7950
:1028F6000061756773740073657074006F63746F3D
:1029060062006E6F76656D00646563656D002447D1
:1029160050524D43000A0D48656C6C6F20576F721C
:102926006C64210A0D000A0D427566666572207395
:10293600697A652069733A090073657420616C6170
:10294600726D007365742074696D6500736574201B
:102956006461746500736574207A6F6E65007365D3
:102966007420627269740073657420766F6C20003F
:10297600736574207265676E002020202020202059
:0229860020002F
:00000001FF
