:100000000C94AB000C944A090C94C8000C94A70BF8
:100010000C94C8000C94F90B0C94C8000C94C80004
:100020000C94C8000C9442100C94C8000C94C800A6
:100030000C94C8000C94C8000C94C8000C94C80020
:100040000C940A0D0C94C8000C94C8000C94C800C1
:100050000C94C8000C94C8000C94C8000C94D900EF
:100060000C94C8000C94C8006A000B10120F0D0EFF
:100070001113740003070809060A050C047F00FC2D
:1000800060DAF266B6BEE0FEE68B00FA3E1A7ADE71
:100090008EF62E6078AE1CAA2A3ACEF30AB61E3827
:1000A00038B86E76DA736E6F6F7A6500623100620F
:1000B00033006232007A0057414B45524553455454
:1000C0000077616B6574696D65002100636C6F6317
:1000D0006B20696E6974007475726E696E67206F4B
:1000E0006E20627574746F6E73007475726E696ED3
:1000F00067206F6E20616C61726D73770076666445
:1001000020696E697400626F6F737420696E697420
:1001100000737065616B657220696E697400636C51
:100120006F636B20696E697400616C61726D206928
:100130006E697400646F6E65005365742064617944
:1001400000616C61726D206F666600616C61726D3A
:10015000206F6E21000011241FBECFEFD4E0DEBF60
:10016000CDBF12E0A0E0B1E0ECE3F8E202C0059000
:100170000D92A234B107D9F712E0A2E4B2E001C0B7
:100180001D92A13FB107E1F70E9412120C941C14BA
:100190000C9400007894109248021092470220912B
:1001A00047023091480228173907C8F30895A895E7
:1001B00008951F920F920FB60F9211242F933F9321
:1001C0004F935F936F937F938F939F93AF93BF935F
:1001D000EF93FF9300B605FE27C080915402811172
:1001E00041C05B9A85B1877D85B95E988CB58F7B60
:1001F0008CBD80915202882361F06091EA0285E013
:1002000090E00E940E146091F00286E090E00E945F
:100210000E1461E085EB90E00E94FE1015BC109278
:10022000DF021092680019C0809154028823D1F037
:1002300080915202882361F06091EA0285E090E0AB
:100240000E940E146091F00286E090E00E940E146D
:1002500061E087EB90E00E94FE10E0915602F09181
:1002600057020995FF91EF91BF91AF919F918F91A7
:100270007F916F915F914F913F912F910F900FBEA2
:100280000F901F90189581E0809354025B9A8CB573
:100290008F7B8CBD85B1877D85B95E9815BC10922A
:1002A000DF021092680085B1897F85B98BB18F7CA0
:1002B0008BB928988AB18F7C8AB920985A9852981D
:1002C000E1E6F0E090E8908388E08083449A83B789
:1002D000876083BF889590831082449808958EE24A
:1002E00084B988E48AB989E187B984E38BB981E06C
:1002F00085B995E09093680080936B0080E38093CC
:100300006D000895CF93DF9384E090E00E9406147F
:10031000D8E16D2F0E94561390935C0285E090E027
:100320000E940614CCE36C2F0E9456139093EA02AD
:1003300086E090E00E9406146C2F0E945613909362
:10034000F00288E090E00E9406146C2F0E94561381
:100350009093DE0287E090E00E9406146D2F0E94C9
:1003600056139093EC0281E090E00E94061464E63C
:100370000E9456139093DD0282E090E00E940614E2
:100380006DE00E9456139093EF0283E090E00E948C
:1003900006148F718093E00291E090935202E6EB95
:1003A000F0E080818062808385E08093B10090934B
:1003B00070007894DF91CF9108959C018370992704
:1003C000892B39F4C90164E670E00E947013892B0F
:1003D00069F4C90160E971E00E94701321E030E026
:1003E000892B11F020E030E0C901089581E090E010
:1003F00008958AE090E00E9406148093DF0285B1A0
:10040000866085B982E3809380008091DF02882333
:1004100029F08091800080688093800088E180933B
:1004200081008AEF90E0909387008093860080910E
:100430008600909187009695879590938900809388
:10044000880090938B0080938A0008950F931F93E8
:10045000CF93DF9300E810E0F8011082C1E8D0E00C
:100460001882299A2A988AE090E00E94CA002A9A63
:1004700029988AE090E00E94CA0085B1897F85B9F9
:1004800082EBF801808388E18883DF91CF911F910F
:100490000F910895CF93C62F9C0140E050E060E497
:1004A00072E48FE090E00E94BA13309387002093AB
:1004B000860080918600909187009695879590930D
:1004C0008B0080938A00909389008093880020C0DD
:1004D000809181008260809381002FEF81EE94E013
:1004E000215080409040E1F700C0000080918100E1
:1004F0008D7F8093810085B1897F85B92FEF81EE53
:1005000094E0215080409040E1F700C00000C150CD
:10051000C111DECF85B1897F85B9CF9108958B3523
:1005200090F58E3110F08E3111F48EE12DC08432B1
:1005300010F483E229C0893210F488E225C08E329B
:1005400010F48DE221C0833310F482E31DC08833A0
:1005500010F487E319C08D3310F48CE315C0823496
:1005600010F481E411C0873410F486E40DC08C349B
:1005700010F48BE409C0813510F480E505C08635A0
:1005800010F485E501C08AE587BD83E084BD81E084
:1005900085BD84B5806884BD80916E008160809344
:1005A0006E0078940895CF93C82F362F842F2AE0B9
:1005B000622F0E945613E92FF0E0E158FF4FE491BB
:1005C000E093E902E82FF0E0E158FF4FE491E09377
:1005D000E8021092E702832F0E945613E92FF0E001
:1005E000E158FF4FE491E093E602E82FF0E0E15894
:1005F000FF4FE491E093E5021092E40280915502EE
:10060000811122C08C2F90E00B966CE070E00E946C
:10061000841301966AE070E00E948413FC01E158A3
:10062000FF4FE491E093E302FB01E158FF4F649137
:100630006093E2028091E102CC3010F0816001C051
:100640008E7F8093E10216C08C2F68E10E945613C2
:10065000892F622F0E945613E92FF0E0E158FF4FD7
:10066000E491E093E302E82FF0E0E158FF4FE491DA
:10067000E093E202CF9108958F929F92BF92DF9212
:10068000EF92FF920F931F93CF93DF93F0905C0252
:10069000E090EA02D090F0028AE08093420210E0FB
:1006A0000AE0CCE3D0E048E1842E912C8091450211
:1006B00080FDCFC080914502811104C08091440229
:1006C000882319F00093420205C0809142028111F3
:1006D00001C04BC08091450281FF4AC01092450283
:1006E000111117C0F0905C02E090EA02D090F00285
:1006F0004D2D6E2D8F2D0E94D3028091E2028160DC
:100700008093E2028091E30281608093E30211E032
:100710002FC0113089F44D2D6E2D8F2D0E94D302E4
:100720008091E50281608093E5028091E60281601C
:100730008093E60212E01CC0123089F44D2D6E2D1C
:100740008F2D0E94D3028091E80281608093E8029D
:100750008091E90281608093E90213E009C0F09280
:100760005C02E092EA02D092F0021092EE0271C0B6
:100770008091450282FD04C08091440282FF96CFA1
:10078000109245021130F9F48F2D90E00196B401DA
:100790000E948413B82EF82E4D2D6E2D0E94D30288
:1007A0008091E20281608093E2028091E3028160A5
:1007B0008093E302B0925C0260915C0284E090E07E
:1007C0000E940E143DC0123001F58E2D90E001966E
:1007D000BE010E948413B82EE82E4D2D682F8F2D58
:1007E0000E94D3028091E50281608093E5028091AE
:1007F000E60281608093E6026091EA0285E090E083
:100800000E940E14B092EA021BC01330C9F48D2D61
:1008100090E00196BE010E948413B82ED82E482F76
:100820006E2D8F2D0E94D3028091E802816080930B
:10083000E8028091E90281608093E902B092F002BF
:100840008091440282FF32CF8BE490E00E94CA0084
:100850002DCFDF91CF911F910F91FF90EF90DF90FF
:10086000BF909F908F900895282F862F1092E902B5
:100870001092E8021092E7026AE00E945613E92FF4
:10088000F0E0E158FF4FE491E093E602E82FF0E05A
:10089000E158FF4FE491E093E5021092E402809169
:1008A0005502811120C08091E1022C3048F0816016
:1008B0008093E102EAE9F0E0E491E093E80208C005
:1008C000EBE8F0E0E491E093E8028E7F8093E102B0
:1008D000E7E9F0E0E491E093E902822F90E00B96E3
:1008E0006CE070E005C0822F90E0479668E170E010
:1008F0000E94841301966AE070E00E948413FC0158
:10090000E158FF4FE491E093E302FB01E158FF4F10
:1009100064916093E2020895CF92DF92EF92FF928A
:100920000F931F93CF93DF93F090EC02E090DE02E1
:100930008AE080934202C0E0DAE05CE3C52ED12C6D
:1009400008E110E08091450280FDA7C0809145023A
:10095000811104C080914402882319F0D09342028F
:100960001EC08091420281111AC01092EE02F092D4
:10097000EC02E092DE026091EC0287E090E00E94DF
:100980000E146091DE0288E090E0DF91CF911F911C
:100990000F91FF90EF90DF90CF900C940E14809108
:1009A000450281FF39C010924502C11110C06E2D61
:1009B0008F2D0E9434048091E20281608093E202D4
:1009C0008091E30281608093E302C1E025C0C130E1
:1009D00081F46E2D8F2D0E9434048091E502816098
:1009E0008093E5028091E60281608093E602C2E096
:1009F00013C0F092EC02E092DE026091EC0287E01C
:100A000090E00E940E146091DE0288E090E00E9467
:100A10000E141092EE0241C08091450282FD04C086
:100A20008091440282FF8ECF10924502C130A9F41A
:100A30008F2D90E00196B8010E948413F82E6E2D40
:100A40000E9434048091E20281608093E2028091EE
:100A5000E30281608093E30217C0C230A9F48E2DB7
:100A600090E00196B6010E948413E82E682F8F2D26
:100A70000E9434048091E50281608093E5028091B8
:100A8000E60281608093E6028091440282FF5ACFA1
:100A90008BE490E00E94CA0055CFDF91CF911F9167
:100AA0000F91FF90EF90DF90CF900895282F862F21
:100AB000EDE8F0E0E491E093E902EEE9F0E0E491A2
:100AC000E093E802EFE9F0E0E491E093E7026AE006
:100AD0000E945613E92FF0E0E158FF4FE491E093B4
:100AE000E602E82FF0E0E158FF4FE491E093E502E1
:100AF0001092E402822F992787FD909597FF03C0FB
:100B00009195819591096AE070E00E948413FC013F
:100B1000E158FF4FE491E093E302FB01E158FF4FFE
:100B200064916093E2028091E10227FD02C08D7F13
:100B300001C082608093E1020895AF92BF92CF928C
:100B4000DF92FF920F931F93CF93DF93F0900001FA
:100B5000D09050028AE080934202C0E0DAE07CE369
:100B6000A72EB12C0BE110E08091450280FD9CC0C6
:100B700080914502811104C080914402882319F0BC
:100B8000D093420205C080914202811101C02AC067
:100B90008091450281FF29C010924502C11110C009
:100BA0006D2D8F2D0E9456058091E2028160809309
:100BB000E2028091E30281608093E302C1E015C00C
:100BC000C13081F46D2D8F2D0E9456058091E50274
:100BD00081608093E5028091E60281608093E60265
:100BE000C2E003C01092EE025FC08091450282FD18
:100BF00004C08091440282FFB7CF10924502C130F9
:100C000059F58F2D992787FD90950D96B8010E9473
:100C1000841364EFF62EF80E6D2D8F2D0E9456056D
:100C20008091E20281608093E2028091E302816020
:100C30008093E302F09200016F2D8DE090E00E941E
:100C40000E1481E091E00E9429118F2D992787FDD4
:100C500090950E9466111FC0C230E9F48D2D90E07E
:100C60000196B5010E948413C82ED82E682F8F2DAF
:100C70000E9456058091E50281608093E502809193
:100C8000E60281608093E602C09250026C2D8EE0F5
:100C900090E00E940E148091440282FF65CF8BE4A5
:100CA00090E00E94CA0060CFDF91CF911F910F9119
:100CB000FF90DF90CF90BF90AF900895CF93DF93D8
:100CC0001092E102EC01A2EEB2E0E991EE23C1F054
:100CD0008E2F81568A3120F4F0E0E65DFF4F07C089
:100CE0008E2F80538A3030F4F0E0E15BFF4FE491C7
:100CF000EC9301C01C92119682E0AA3EB80729F736
:100D0000DF91CF910895CF93DF93811184C010922A
:100D1000E10282E08093E4028093E7028091550231
:100D200081112EC08091EF022AE0622F0E9462138F
:100D3000E82FFF27E7FDF095E158FF4FE491E0939E
:100D4000E2028091EF02622F0E946213E92FFF27D7
:100D5000E7FDF095E158FF4FE491E093E3028091C5
:100D6000E002622F0E946213E82FFF27E7FDF09553
:100D7000E158FF4FE491E093E5028091E0022DC03D
:100D80008091E0022AE0622F0E946213E82FFF2781
:100D9000E7FDF095E158FF4FE491E093E202809186
:100DA000E002622F0E946213E92FFF27E7FDF09512
:100DB000E158FF4FE491E093E3028091EF02622F4C
:100DC0000E946213E82FFF27E7FDF095E158FF4FDF
:100DD000E491E093E5028091EF02622F0E9462139A
:100DE000E92FFF27E7FDF095E158FF4FE491E093ED
:100DF000E6028091DD022AE0622F0E946213E82F52
:100E0000FF27E7FDF095E158FF4FE491E093E802FA
:100E10008091DD02D4C0813009F0DDC0C091EF02C5
:100E2000DD27C7FDD095E091DD02FF27E7FDF095B6
:100E3000E053F84F8091EF02833014F42C963197F1
:100E40002091E0021092E8021092E902332727FD78
:100E500030952F5F3F4F2E0F3F1FCE01880F991FF8
:100E6000280F391FCF019695879596958795280F5E
:100E7000391FCF0160E971E00E947013260F371F00
:100E8000CF0164E670E00E947013261B370B219699
:100E900046E04C9FC0014D9F900D11246AE070E028
:100EA0000E947013260F371FC90167E070E00E948F
:100EB000701383309105B1F034F48130910561F005
:100EC000029739F40CC08530910591F074F00697C3
:100ED00091F08AE191E011C081E291E00EC088E2D8
:100EE00091E00BC080E391E008C089E391E005C088
:100EF00082E491E002C089E491E00E945E0688EEFF
:100F000093E00E94CA001092E5021092E60210924D
:100F1000E7028091EF02863059F16CF48330F9F0EA
:100F20002CF48130B1F08230C9F516C08430D1F094
:100F30008530A1F51AC0893021F12CF48730D9F021
:100F4000883061F51BC08B3011F1F4F08C3031F535
:100F500021C082E591E020C086E591E01DC08AE5D0
:100F600091E01AC080E691E017C086E691E014C0D7
:100F70008AE691E011C08FE691E00EC084E791E02F
:100F80000BC08AE791E008C08FE791E005C085E8D3
:100F900091E002C08BE891E00E945E068091E00241
:100FA0002AE0622F0E946213E82FFF27E7FDF095E9
:100FB000E158FF4FE491E093E8028091E002622F54
:100FC0000E946213E92FFF27E7FDF095E158FF4FDC
:100FD000E491E093E902DF91CF9108950F931F937D
:100FE000CF93DF938AE080934202C0E0DAE011E021
:100FF00004E680914502811104C080914402882357
:1010000019F0D093420205C080914202811101C0C3
:1010100066C08091450280FDF5C08091450281FF48
:1010200061C010924502C1111AC0809155028823F7
:1010300039F061E089E391E00E94FE10C2E001C056
:10104000C1E080E00E9483068091E202816080938B
:10105000E2028091E30281608093E30243C0C130E9
:1010600029F480915502882339F01EC0C23069F5F9
:10107000809155028130A9F480915502811102C0FE
:10108000C2E001C0C1E080E00E9483068091E502D9
:1010900081608093E5028091E60281608093E602A0
:1010A00021C0882319F011C0813079F480E00E94BA
:1010B00083068091E80281608093E8028091E902D2
:1010C00081608093E902C3E00DC083E68093EE0265
:1010D00080E00E9483068CED95E00E94CA00109289
:1010E000EE0290C08091450282FD04C080914402CE
:1010F00082FF7FCF10924502C13061F58091EF02EF
:101100008F5F8093EF028091EF028D3014F0C093D7
:10111000EF0280E00E9483068091550281110BC08E
:101120008091E20281608093E2028091E30281601B
:101130008093E3020AC08091E50281608093E5021A
:101140008091E60281608093E6026091EF0282E086
:1011500090E04DC0C23061F58091E0028F5F8093D6
:10116000E0028091E002803214F01093E00280E00F
:101170000E94830680915502813059F48091E202E9
:1011800081608093E2028091E30281608093E302B8
:101190000AC08091E50281608093E5028091E602B9
:1011A00081608093E6026091E00283E090E01FC0DE
:1011B000C330F9F48091DD028F5F8093DD0280916E
:1011C000DD02602F0E9462139093DD0280E00E9496
:1011D00083068091E80281608093E8028091E902B1
:1011E00081608093E9026091DD0281E090E00E94DD
:1011F0000E148091440282FFFCCE8CE390E00E94AA
:10120000CA00F7CEDF91CF911F910F9108954A9BAD
:1012100023C08091EB0281113CC081E08093EB02FE
:1012200010924A021092490281E991E00E945E0602
:1012300089E08093EE0288EE93E00E94CA006091FC
:10124000DE028091EC020E94340488EE93E00E945A
:10125000CA001092EE0208958091EB028823C9F033
:101260001092EB0210924A02109249028091ED0214
:10127000882379F061E081E491E00E94FE101092F1
:10128000ED02809181008D7F8093810085B1866021
:1012900085B908951F920F920FB60F9211242F93C4
:1012A0003F934F935F936F937F938F939F93AF93EE
:1012B000BF93CF93EF93FF9389E60E94EA10C9B1E1
:1012C00078948AE090E00E94CA0089B1C4702C2F03
:1012D00030E0847090E02817390711F40E94070964
:1012E000FF91EF91CF91BF91AF919F918F917F919E
:1012F0006F915F914F913F912F910F900FBE0F9083
:101300001F901895809154028823E1F180E8809322
:1013100061001092610061E081EC90E00E94FE109B
:10132000109254028FE39CE90197F1F700C000008E
:1013300000B605FC27C00E946F0189E090E00E9482
:1013400006140E948F0281E58CBD5B9843988AE069
:1013500090E00E9406148093DF020E94F901A89594
:101360000E94070961E080E793E00E944A0261E081
:1013700080EE96E00E944A0261E080EC9DE00E94CF
:101380004A02A8950895CF93DF938AE080934202A2
:101390008BE090E00E94061480935502C0E0DAE0F2
:1013A00001C0C0E080914502811104C080914402D7
:1013B000882319F0D093420205C080914202811126
:1013C00001C019C08091450280FD37C0809145025F
:1013D00081FF14C010924502C1110DC080915502C9
:1013E000811103C08AE991E002C083EA91E00E9482
:1013F0005E06C1E003C01092EE021FC0809145025C
:1014000082FFD0CF10924502C13059F681E0909111
:101410005502911180E080935502811103C08AE941
:1014200091E002C083EA91E00E945E06609155025D
:101430008BE090E00E940E14B5CFDF91CF9108951C
:101440000F931F93CF93DF938AE0809342028AE049
:1014500090E00E940614182FC0E00AE001C0C0E02E
:1014600080914502811104C080914402882319F0C3
:101470000093420205C080914202811101C02DC03B
:101480008091450280FD65C08091450281FF28C0A2
:1014900010924502C11121C0112351F08CEA91E054
:1014A0000E945E068091E60281608093E60204C09D
:1014B00085EB91E00E945E068091E7028160809357
:1014C000E7028091E80281608093E8028091E9025E
:1014D00081608093E902C1E003C01092EE0239C03E
:1014E0008091450282FFBCCF10924502C13009F0C5
:1014F000B6CFD1E01111D0E01D2FDD2351F08CEAE1
:1015000091E00E945E068091E60281608093E6028F
:1015100004C085EB91E00E945E068091E702816045
:101520008093E7028091E80281608093E8028091D5
:10153000E90281608093E9026D2F8AE090E00E94C9
:101540000E140E94F90161E080EA9FE00E944A02C5
:1015500087CFDF91CF911F910F9108957F928F9246
:101560009F92AF92BF92CF92DF92EF92FF920F9332
:101570001F93CF93DF938AE08093420289E090E04B
:101580000E940614C82F20E0DAE01EE10AE585E596
:10159000F82E90E5E92E3BE4D32E46E4C42E51E428
:1015A000B52E6CE3A62E77E3972EE2E38E2EFDE2B6
:1015B0007F2E01C020E080914502811104C08091FE
:1015C0004402882319F0D093420205C08091420260
:1015D000811101C026C08091450280FD91C080919B
:1015E000450281FF32C01092450221111AC08EEBD4
:1015F00091E00E945E068C2F6D2F0E945613E82FFB
:10160000F0E0E158FF4F849181608093E802E92F78
:10161000F0E0E158FF4FE491E160E093E90221E05E
:1016200014C01092EE026C2F89E090E0DF91CF9110
:101630001F910F91FF90EF90DF90CF90BF90AF90F0
:101640009F908F907F900C940E148091450282FDA4
:1016500004C08091440282FFAECF10924502213037
:1016600009F0A8CFCB5FCC3508F0CEE18C2F6D2FE1
:101670000E945613E82FF0E0E158FF4F84918160FB
:101680008093E802E92FF0E0E158FF4FE491E16038
:10169000E093E902CF3108F431C0C43210F483E2A0
:1016A00003C0C93218F488E287BD85CFCE3210F46A
:1016B00077BC81CFC33310F487BC7DCFC83310F41F
:1016C00097BC79CFCD3310F4A7BC75CFC23410F4DA
:1016D000B7BC71CFC73410F4C7BC6DCFCC3410F495
:1016E000D7BC69CFC13510F4E7BC65CFC63510F45F
:1016F000F7BC61CFCB3511F007BD5DCF17BD5BCF18
:10170000DF91CF911F910F91FF90EF90DF90CF90DD
:10171000BF90AF909F908F907F90089588E592E062
:1017200090934A028093490261E085EA90E00E942A
:10173000FE1085EC91E00E945E0689E08093EE0247
:1017400088EE93E00E94CA001092EE0208951F9264
:101750000F920FB60F9211242F933F934F935F93E5
:101760006F937F938F939F93AF93BF93EF93FF9369
:10177000109268007894189923C08091460281FDE8
:1017800024C08AE090E00E94CA0018991EC00E94FE
:1017900026028091ED02882319F00E948E0B15C05D
:1017A0008091460282608093460280914502826069
:1017B0008093450261E082EB90E00E94FE1005C03C
:1017C000809146028D7F8093460285E08093680079
:1017D000FF91EF91BF91AF919F918F917F916F9109
:1017E0005F914F913F912F910F900FBE0F901F90DF
:1017F00018951F920F920FB60F9211242F933F93BB
:101800004F935F936F937F938F939F93AF93BF9308
:10181000EF93FF931092680078944D9920C08091C7
:10182000460280FD21C08AE090E00E94CA004D99E6
:101830005CC00E9426028091ED02811132C080912D
:1018400046028160809346028091450281608093C8
:10185000450261E08CEA90E00E94FE1005C0809194
:1018600046028E7F809346024C9938C08091460292
:1018700082FD3BC08AE090E00E94CA004C9935C0CE
:1018800082E0809343021BC04C9B19C00E94260239
:10189000809146028B7F809346028091ED028823DF
:1018A00019F00E948E0B21C061E08FEA90E00E9447
:1018B000FE108091450284608093450216C080919D
:1018C00043028111E1CF80914602846080934602F9
:1018D0008091440284608093440207C010924402C5
:1018E000809146028B7F8093460285E0809368005A
:1018F000FF91EF91BF91AF919F918F917F916F91E8
:101900005F914F913F912F910F900FBE0F901F90BD
:10191000189581E58CBD08958EBD0DB407FEFDCFF1
:101920000895CF93DF9300D0CDB7DEB7F8946A83E4
:1019300079830E948C0C7981872F0E948C0C6A819C
:10194000862F0E948C0C409A409878940F900F90AC
:10195000DF91CF9108958F929F92AF92BF92CF92D5
:10196000DF92EF92FF920F931F93A62FE82FF0E0E4
:10197000EC58FF4FE49161E070E002C0660F771F02
:10198000EA95E2F7882777FD8095982F0091580215
:101990001091590220915A0230915B0240E050E0D0
:1019A000B0E0C12CD12C7601C394FD01042E02C0FD
:1019B000F595E7950A94E2F7E0FF13C0FA01E659BE
:1019C000FF4F04914601570104C0880C991CAA1CC2
:1019D000BB1C0A95D2F795018401682979298A29C7
:1019E0009B294F5F5F4F48305105F9F6009358022D
:1019F0001093590220935A0230935B021F910F916A
:101A0000FF90EF90DF90CF90BF90AF909F908F901E
:101A10000C94910C1F920F920FB60F9211242F93DA
:101A20003F934F935F936F937F938F939F93AF9366
:101A3000BF93EF93FF937894A89580914D02909176
:101A40004E02019690934E0280934D02819708F4C6
:101A500067C010924E0210924D0280914702909101
:101A600048020196909348028093470280914F026A
:101A7000893010F010924F0280914F02E82FF0E071
:101A8000EF51FD4F60810E94AB0C80914F028F5F40
:101A900080934F028091ED02882309F441C0809128
:101AA000490290914A02892BD9F580914B0290917D
:101AB0004C02019690934C0280934B02853691051F
:101AC00078F110924C0210924B028AEF90E09093C2
:101AD000870080938600809186009091870096957C
:101AE000879590938B0080938A00909389008093D0
:101AF00088008091ED02807F49F08091ED028F7027
:101B00008093ED02809181008D7F08C08091ED026D
:101B1000806F8093ED0280918100826080938100CC
:101B2000FF91EF91BF91AF919F918F917F916F91B5
:101B30005F914F913F912F910F900FBE0F901F908B
:101B400018958091C00080780895FC0183818051B0
:101B500092812AE0929F800D1124958190512481D9
:101B60003AE0239F900D112430910001232F205142
:101B70004181240F40815AE0459F200D112420937C
:101B80005C022091500237FF02C0821B01C0820F0D
:101B90008093EA029093F0020895FC012181205184
:101BA00080813AE0839F200D11249381905182819E
:101BB0004AE0849F900D11248581805134814AE050
:101BC000349F800D112410925302109252022093E0
:101BD000E0029093EF028093DD0208959091EB0272
:101BE0009923B1F09091EC02981312C08091DE021B
:101BF00086130EC041110CC061E08BE491E00E949D
:101C0000FE1081E08093ED0210924A021092490288
:101C100008958091F0028C3354F08091F0028C533F
:101C20008093F0028091EA028F5F8093EA028091B4
:101C3000F00287FF0AC08091F002845C8093F0027A
:101C40008091EA0281508093EA028091EA028C330B
:101C5000B4F08091EA028C538093EA0280915C0296
:101C60008F5F80935C0260915C0284E090E00E9450
:101C70000E146091EA0285E090E00E940E148091BB
:101C8000EA0287FF16C08091EA02845C8093EA0230
:101C900080915C02815080935C0260915C0284E0E0
:101CA00090E00E940E146091EA0285E090E00E94AC
:101CB0000E1480915C02883184F080915C0288511E
:101CC00080935C028091E0028F5F8093E0026091DC
:101CD000E00283E090E00E940E1480915C0287FF96
:101CE00010C080915C02885E80935C028091E0026B
:101CF00081508093E0026091E00283E090E00E94D6
:101D00000E148091E00280327CF58091E0028F31E8
:101D100081F48091EF02843039F18091EF028630B6
:101D200019F18091EF028930F9F08091EF028B3048
:101D3000D9F08091E0028E3121F48091EF0282305F
:101D400099F08091E0028D31E9F48091EF028230C8
:101D5000C9F48091DD02992787FD90958053984FB3
:101D60000E94DD0181110EC081E08093E00280912C
:101D7000EF028F5F8093EF026091EF0282E090E0CC
:101D80000E940E148091E00218160CF446C0809157
:101D9000EF028630B9F05CF48330E1F01CF481305E
:101DA0008CF432C0843071F0853071F50FC08A3008
:101DB0001CF488303CF40AC08B3021F03CF08C30AD
:101DC00019F504C08091E002815E16C08091E002A6
:101DD000825E12C08091DD02992787FD9095805325
:101DE000984F0E94DD01882321F08091E002835EFC
:101DF00003C08091E002845E8093E0028091EF0254
:101E000081508093EF0203C081E08093E0026091F3
:101E1000EF0282E090E00E940E148091EF028D307C
:101E200074F08091DD028F5F8093DD0281E080930A
:101E3000EF026091DD0281E090E00E940E1480913B
:101E4000EF021816B4F08091EF02845F8093EF02E6
:101E50008091DD0281508093DD026091EF0282E08B
:101E600090E00E940E146091DD0281E090E00C94FD
:101E70000E140895AF92BF92CF92DF92EF92FF922D
:101E80000F931F93CF93DF93CDB7DEB760970FB655
:101E9000F894DEBF0FBECDBF8091C6008F879091B2
:101EA0005102911105C0843209F0DBC081E018C0F5
:101EB0000DE512E0F80101900020E9F73197E01BF1
:101EC000F10BE038F10508F019C0369791F46EEC8B
:101ED00071E08DE592E00E94ED13009721F482E01D
:101EE00080935102B5C080E8F80111928A95E9F714
:101EF00047C08A3209F0ACC0923019F080E8D801AE
:101F00003CC083EE91E00E9429118DE592E00E9491
:101F100029116CE270E08DE592E00E94E213FC0171
:101F2000319626E0DE01189601900D922A95E1F790
:101F30001E8608E010E06CE270E001960E94E21359
:101F400001501109C1F7FC01319686E0DE011196BE
:101F500001900D928A95E1F71F822D818E8190E08C
:101F6000BAE02B9F800D911D1124805192400A9759
:101F700054F480E8EDE5F2E0DF011D928A95E9F77F
:101F8000109251026EC010915C020091EA02CE01E3
:101F900008960E94A50DCE0101960E94CD0D0E94CB
:101FA000090E20915C028091EA02992787FD9095A5
:101FB000BCE32B02800D911D1124E12EF12C202F6A
:101FC00030E0ECE31E9F200D311D112470915C0266
:101FD000B090EA02FC01E21BF30BF7FF16C0DC0134
:101FE000A056BA4FA217B30780F0AF0140565A4F20
:101FF00057FF03C0519541955109F195E195F109BC
:102000004E175F0714F4785ECD012817390798F052
:10201000B0CF40E06B2D8A2D788B0E94EE0DBA94E4
:10202000788902C0A72EA01AB7FEF3CF0F5F1F4F0B
:10203000ABE3BA2E06C000E010E0C72EDD24C7FCDB
:10204000D094C601801B910B8E159F055CF791CF34
:1020500041E050E0BE01615F7F4F8DE592E00E945C
:10206000F61360960FB6F894DEBF0FBECDBFDF91BA
:10207000CF911F910F91FF90EF90DF90CF90BF9085
:10208000AF9008951F920F920FB60F9211242F93C5
:102090003F934F935F936F937F938F939F93AF93F0
:1020A000BF93EF93FF9380E88093610010926100EB
:1020B0008091F0028F5F8093F0020E94090E809160
:1020C0005402811152C08091EE02811120C0809192
:1020D0005302882349F08091F00280FF05C089E314
:1020E00092E00E945E0608C04091F0026091EA0210
:1020F00080915C020E94D3029091EB028091E102F8
:10210000992311F0826001C08D7F8093E10240919C
:10211000F0026091EA0280915C020E94EE0D8091D3
:102120004202882329F0809142028150809342022A
:1021300080914302882329F080914302815080934B
:1021400043028091490290914A02009771F00197F1
:1021500090934A02809349029091E10280FF02C06D
:10216000926001C09D7F9093E102FF91EF91BF913A
:10217000AF919F918F917F916F915F914F913F911F
:102180002F910F900FBE0F901F90189505C0815092
:102190009EE100009150E9F78111F9CF08950AC03E
:1021A0002FEF39E698E1215030409040E1F700C030
:1021B000000081508111F4CF08959093C500809361
:1021C000C40088E18093C1008EE08093C200519AE0
:1021D000509808959091C00095FFFCCF8093C60061
:1021E00080E090E008958091C00087FFFCCF80914F
:1021F000C60008958091C00080780895EF92FF9204
:102200001F93CF93DF931F92CDB7DEB77C0110E011
:1022100005C069830E94EA101F5F6981F701E10F21
:10222000F11D84918111F5CF662361F08AE00E944F
:10223000EA108DE00F90DF91CF911F91FF90EF900A
:102240000C94EA100F90DF91CF911F91FF90EF90C7
:102250000895CF93DF93EC0102C00E94EA108991A8
:102260008111FBCFDF91CF910895CF93C82F829535
:102270008F708A3010F4805D01C0895A0E94EA1084
:102280008C2F8F70282F30E02A30310514F4805DB8
:1022900001C0895ACF910C94EA10CF93C82F892F8F
:1022A0000E9435118C2FCF910C943511CF92DF9273
:1022B000EF92FF926B017C01C7010E944D11C60194
:1022C000FF90EF90DF90CF900C944D11AF92BF92A2
:1022D000CF92DF92EF92FF920F931F93CF93DF93F2
:1022E0001F92CDB7DEB77C0105E010E020E080E171
:1022F000A82E87E2B82E9AE0C92ED12CC701B501CD
:102300000E947013862F611106C0211104C091E054
:10231000A916B10431F4805D69830E94EA1021E0BE
:1023200069816A9DC0016B9D900D1124E81AF90A1C
:10233000C501B6010E9470135B0101501109F1F64D
:102340000F90DF91CF911F910F91FF90EF90DF9051
:10235000CF90BF90AF9008952F923F924F925F928F
:102360006F927F928F929F92AF92BF92CF92DF92A5
:10237000EF92FF921F93CF93DF931F92CDB7DEB7FB
:102380004B015C012AE0222E312C10E0C12C3AECEA
:10239000D32E3AE9E32E3BE3F32E4AE0442E512CB0
:1023A000612C712CC501B401A70196010E949813FC
:1023B000822F211108C0111106C091E0C916D10465
:1023C000E104F10431F4805D29830E94EA1011E0F8
:1023D0002981A22FB0E0A70196010E944B13861A13
:1023E000970AA80AB90AC701B601A30192010E947F
:1023F000981369017A01E1E02E1A310899F60F90DD
:10240000DF91CF911F91FF90EF90DF90CF90BF9021
:10241000AF909F908F907F906F905F904F903F9084
:102420002F90089515BC569A5E9884B714BE90E01C
:102430000E944D1188E10FB6F894809360001092CD
:1024400060000FBE2FE088E190E00FB6F894A895E9
:10245000809360000FBE20936000A895C1E0C093F8
:1024600053021092520284E390E00E94DD1061E07A
:102470008AEC90E00E94FE1085ED91E00E94291107
:1024800086EE91E00E94291180E890E00E9466119A
:1024900083EE91E00E94291188E480BF8FEC97E0E1
:1024A0000197F1F700C0000000B605FE0BC080B731
:1024B000806180BF61E08CEC90E00E94FE100E9481
:1024C00082015AC00E946F015B9861E087ED90E045
:1024D0000E94FE1061E08AEE90E00E94FE10C09320
:1024E0006900CDBB1092EE0261E08DEF90E00E949A
:1024F000FE1081E58CBD61E086E091E00E94FE1057
:1025000089E090E00E9406140E948F0278948DE08A
:1025100090E00E94061480930001845F8B3110F0DC
:10252000109200018EE090E00E9406148093500209
:102530008D3310F0109250028BE090E00E94061450
:102540008093550261E081E191E00E94FE100E94BB
:10255000F90161E080EA9FE00E944A0261E08EE1B9
:1025600091E00E94FE100E94820161E089E291E008
:102570000E94FE100E94070961E084E391E00E943E
:10258000FE10C3E6DBE018E007E0B6E0FB2E85E0D6
:10259000E82E93E0D92E24E0C22EA89500B605FEC1
:1025A00003C00E944301F9CF8091450280FF55C0CE
:1025B000109245028091EE02853059F130F483305B
:1025C000F9F098F4882341F05DC08730E9F198F183
:1025D0008B3009F057C026C0C092EE0289EF91E01F
:1025E0000E945E060E948C044FC0D092EE0283E0EF
:1025F00092E00E945E060E943C031092530244C087
:10260000E092EE028CE092E00E945E060E94EE07ED
:102610003BC0D093EE0285E192E00E945E060E94EC
:102620009D0532C0F092EE028EE192E00E945E06BD
:102630000E94AE0A29C00093EE0287E292E00E9457
:102640005E060E94200A20C01093EE0280E392E012
:102650000E945E060E94C30917C08091450281FD59
:1026600004C08091450282FF0FC010924502C093C2
:10267000EE0281E00E948306A8958CED95E00E9411
:10268000CA00A8951092EE028091C00087FF85CF06
:102690000E943A0F82CF0E94D613A59F900DB49F3F
:1026A000900DA49F800D911D11240895991B79E030
:1026B00004C0991F961708F0961B881F7A95C9F7D2
:1026C0008095089587FB082E062687FD819567FD76
:1026D00061950E9456130EF4919507FC819508951B
:1026E000AA1BBB1B51E107C0AA1FBB1FA617B70738
:1026F00010F0A61BB70B881F991F5A95A9F7809554
:102700009095BC01CD01089597FB072E16F4009417
:1027100007D077FD09D00E94701307FC05D03EF466
:10272000909581959F4F0895709561957F4F08957D
:10273000A1E21A2EAA1BBB1BFD010DC0AA1FBB1FC5
:10274000EE1FFF1FA217B307E407F50720F0A21B37
:10275000B30BE40BF50B661F771F881F991F1A94A4
:1027600069F760957095809590959B01AC01BD01CE
:10277000CF010895052E97FB16F4009407D057FD5E
:102780000DD00E94981307FC09D07EF49095809597
:10279000709561957F4F8F4F9F4F0895509540954D
:1027A000309521953F4F4F4F5F4F0895A29FB00145
:1027B000B39FC001A39F01D0B29F700D811D112452
:1027C000911D0895FC018191861721F08823D9F786
:1027D000992708953197CF010895FB01DC018D9170
:1027E000019080190110D9F3990B0895FB01DC01C8
:1027F0000D900020E9F711974150504028F00190CA
:1028000000200D92C9F708951C920895F999FECF02
:1028100092BD81BDF89A992780B50895262FF99920
:10282000FECF1FBA92BD81BD20BD0FB6F894FA9AB3
:0C283000F99A0FBE01960895F894FFCFAE
:10283C00FA0A0D54696D657A6F6E65206F66667362
:10284C00657420686F75723A090073756E646179EE
:10285C00006D6F6E646179007475657364617900E5
:10286C007765646E73646179007468757273646102
:10287C007900667269646179007361747572646160
:10288C0079006A616E00666562006D617263680052
:10289C00617072696C006D6179006A756E65006AB1
:1028AC00756C790061756773740073657074006F73
:1028BC0063746F62006E6F76656D00646563656D41
:1028CC0000616C61726D206F6E007573612D313219
:1028DC006872006575722D3234687200766F6C20E8
:1028EC006869676800766F6C20206C6F7700627285
:1028FC006974652000736E6F6F7A696E6700244788
:10290C0050524D43000A0D48656C6C6F20576F7226
:10291C006C64210A0D000A0D42756666657220739F
:10292C00697A652069733A090073657420616C617A
:10293C00726D007365742074696D65007365742025
:10294C006461746500736574207A6F6E65007365DD
:10295C007420627269740073657420766F6C200049
:10296C00736574207265676E002020202020202063
:02297C00200039
:00000001FF
