:100000000C94AB000C943F100C94C8000C941E0E82
:100010000C94C8000C94770E0C94C8000C94C80083
:100020000C94C8000C94AD0C0C94C8000C94C8003F
:100030000C94C8000C94C8000C94C8000C94C80020
:100040000C9486090C94C8000C94C8000C94C80049
:100050000C94C8000C94C8000C94C8000C941E0C9E
:100060000C94C8000C94C800FA3E1A7ADE8EF62E64
:100070006078AE1CAA2A3ACEF30AB61E3838B86E9B
:1000800076DA6800FC60DAF266B6BEE0FEE684006E
:1000900003070809060A050C0490000B10120F0D47
:1000A0000E11139B00616C61726D206F66660053C8
:1000B00065742064617900646F6E6500616C6172C3
:1000C0006D20696E697400636C6F636B20696E6983
:1000D0007400737065616B657220696E697400628B
:1000E0006F6F737420696E69740076666420696E40
:1000F0006974007475726E696E67206F6E20616C32
:1001000061726D7377007475726E696E67206F6EC1
:1001100020627574746F6E7300636C6F636B20691B
:100120006E697400210077616B6574696D650057B5
:10013000414B455245534554007A00616C61726DE4
:10014000206F6E2100623200623300623100736EF4
:100150006F6F7A65000011241FBECFEFD4E0DEBFC1
:10016000CDBF11E0A0E0B1E0ECECF4E202C00590FC
:100170000D92A43FB107D9F712E0A4EFB1E001C09E
:100180001D92A132B107E1F70E94150F0C94641281
:100190000C9400009C0178941092020210920102CB
:1001A000809101029091020282179307C8F308958B
:1001B000A895089581E08093F7015B9A8CB58F7BB9
:1001C0008CBD85B1877D85B95E9815BC10920F02F4
:1001D0001092680085B1897F85B98BB18F7C8BB90E
:1001E00028988AB18F7C8AB920985A985298E1E66B
:1001F000F0E090E8908388E08083449A83B787603A
:1002000083BF889590831082449808958EE284B9C4
:1002100088E48AB989E187B984E38BB991E095B91B
:1002200085E08093680090936B0080E380936D007D
:100230000895F999FECF84E090E092BD81BDF89ACF
:1002400080B568E10E94F41190930C02F999FECFF9
:1002500085E090E092BD81BDF89A80B56CE30E9484
:10026000F41190931A02F999FECF86E090E092BDC6
:1002700081BDF89A80B56CE30E94F411909320023E
:10028000F999FECF88E090E092BD81BDF89A80B5E3
:100290006CE30E94F41190930E02F999FECF87E06F
:1002A00090E092BD81BDF89A80B568E10E94F4119A
:1002B00090931C02F999FECF81E090E092BD81BD40
:1002C000F89A80B564E60E94F41190930D02F999B2
:1002D000FECF82E090E092BD81BDF89A80B56DE0DE
:1002E0000E94F41190931F02F999FECF83E090E0F1
:1002F00092BD81BDF89A80B58F718093100291E014
:100300009093F9018091B60080628093B60085E0F9
:100310008093B1009093700078940895FC018370ED
:100320009070892B39F4CF0164E670E00E940012CE
:10033000892B49F420E030E0CF0160E971E00E94B0
:100340000012892B11F421E030E0822F0895F999F1
:10035000FECF8AE090E092BD81BDF89A80B580938F
:100360000F0285B1866085B982E380938000809119
:100370000F02882329F0809180008068809380009C
:1003800088E1809381008AEF90E0909387008093CA
:10039000860080918600909187009695879590932E
:1003A00089008093880080918800909189009093C3
:1003B0008B0080938A000895109280001092810033
:1003C000299A2A9878941092020210920102809140
:1003D0000102909102020A97D0F32A9A2998789400
:1003E0001092020210920102809101029091020289
:1003F0000A97D0F385B1897F85B982EB809380001D
:1004000088E18093810008951F93162F9C0140E09E
:1004100050E060E472E48FE090E00E944912309373
:1004200087002093860080918600909187009695A2
:10043000879590938B0080938A0080918A00909199
:100440008B00909389008093880028EC30E01CC0DA
:100450008091810082608093810080ED97E0F901B6
:100460003197F1F70197D9F7809181008D7F8093C3
:10047000810085B1897F85B980ED97E0F9013197D9
:10048000F1F70197D9F71150112311F785B1897F41
:1004900085B91F9108958B3590F58E3110F08E310E
:1004A00011F48EE12DC0843210F483E229C0893228
:1004B00010F488E225C08E3210F48DE221C083331F
:1004C00010F482E31DC0883310F487E319C08D3324
:1004D00010F48CE315C0823410F481E411C0873429
:1004E00010F486E40DC08C3410F48BE409C081351F
:1004F00010F480E505C0863510F485E501C08AE575
:1005000087BD83E084BD81E085BD84B5806884BDFE
:1005100080916E00816080936E00789408951F939F
:10052000182F262F842F6AE00E94F411E92FF0E0A3
:10053000EC57FF4FE491E0931902842F0E94F411CD
:10054000E82FF0E0EC57FF4FE491E093180210928F
:100550001702822F0E94F411E92FF0E0EC57FF4FB1
:10056000E491E0931602822F0E94F411E82FF0E04C
:10057000EC57FF4FE491E093150210921402809122
:10058000F601882361F5812F90E00B966CE070E016
:100590000E9414129C012F5F3F4FC9016AE070E076
:1005A0000E941412FC01EC57FF4FE491E0931302F8
:1005B000C9016AE070E00E941412FB01EC57FF4F82
:1005C000E491E09312021C3020F0809111028160CE
:1005D00003C0809111028E7F809311021AC0812F77
:1005E00068E10E94F411292F892F6AE00E94F4111A
:1005F000E92FF0E0EC57FF4FE491E0931302822FD4
:100600000E94F411E82FF0E0EC57FF4FE491E093E3
:1006100012021F910895BF92CF92DF92EF92FF9244
:100620000F931F93CF93DF93E0900C02F0901A0288
:10063000009120028AE08093070210E05AE0B52E74
:1006400045E0C42ED12CC4E0D0E08091040280FDAE
:10065000E5C080910402882321F48091050288235B
:1006600019F0B092070205C080910702882309F4AF
:100670004BC08091040281FF4AC0109204021123F2
:10068000B9F4E0900C02F0901A02009120028E2D35
:100690006F2D402F0E948F02809112028160809303
:1006A00012028091130281608093130211E02FC027
:1006B000113089F48E2D6F2D402F0E948F02809172
:1006C00015028160809315028091160281608093EB
:1006D000160212E01CC0123089F48E2D6F2D402FAF
:1006E0000E948F028091180281608093180280918D
:1006F000190281608093190213E009C0E0920C0294
:10070000F0921A020093200210921E0287C080917C
:10071000040282FD04C08091050282FF96CF1092F0
:100720000402113031F58E2D90E0019668E170E001
:100730000E941412E82E6F2D402F0E948F0280918C
:100740001202816080931202809113028160809373
:100750001302E0920C0280910C02F999FECF1FBAAD
:10076000D2BDC1BD80BD0FB6F894FA9AF99A0FBEFA
:1007700044C0123039F58F2D90E001966CE370E0A3
:100780000E941412F82E8E2D6F2D402F0E948F0282
:10079000809115028160809315028091160281601C
:1007A0008093160280911A02F999FECF1FBAD2BC2B
:1007B000C1BC80BD0FB6F894FA9AF99A0FBEF092B8
:1007C0001A021BC01330C9F4802F90E001966CE32D
:1007D00070E00E941412082F8E2D6F2D402F0E9462
:1007E0008F02809118028160809318028091190213
:1007F000816080931902009320028091050282FF9C
:1008000024CF78941092020210920102809101028A
:10081000909102028B349105C8F317CFDF91CF91ED
:100820001F910F91FF90EF90DF90CF90BF900895B0
:10083000382F262F109219021092180210921702C8
:10084000862F6AE00E94F411E92FF0E0EC57FF4F89
:10085000E491E0931602822F0E94F411E82FF0E059
:10086000EC57FF4FE491E09315021092140280912F
:10087000F601882309F03BC03C3058F0809111020A
:10088000816080931102E7E7F0E0E491E0931802C1
:100890000AC0E8E6F0E0E491E093180280911102CA
:1008A0008E7F80931102E4E7F0E0E491E093190277
:1008B000832F90E00B966CE070E00E9414129C0174
:1008C0002F5F3F4FC9016AE070E00E941412FC01E3
:1008D000EC57FF4FE491E0931302C9016AE070E026
:1008E0000E941412FB01EC57FF4FE4911EC0832FAE
:1008F00090E0479668E170E00E9414129C012F5F1F
:100900003F4FC9016AE070E00E941412FC01EC57ED
:10091000FF4FE491E0931302C9016AE070E00E9486
:100920001412FB01EC57FF4FE491E093120208957B
:10093000EF92FF920F931F9310911C0200910E02F1
:100940008AE080930702FF247AE0E72E8091040278
:1009500080FDD3C080910402882321F48091050298
:10096000882319F0E092070229C0809107028823AA
:1009700029F510921E0210931C0200930E02209182
:100980001C02F999FECF1FBA87E090E092BD81BDAD
:1009900020BD0FB6F894FA9AF99A0FBE20910E0274
:1009A000F999FECF1FBA88E090E092BD81BD20BDCD
:1009B0000FB6F894FA9AF99A0FBE9FC0809104027C
:1009C00081FF4EC010920402FF2089F4812F602F16
:1009D0000E9418048091120281608093120280911B
:1009E0001302816080931302FF24F39439C081E0E5
:1009F000F81689F4812F602F0E9418048091150247
:100A000081608093150280911602816080931602A6
:100A100062E0F62E25C010931C0200930E02209176
:100A20001C02F999FECF1FBA87E090E092BD81BD0C
:100A300020BD0FB6F894FA9AF99A0FBE20910E02D3
:100A4000F999FECF1FBA88E090E092BD81BD20BD2C
:100A50000FB6F894FA9AF99A0FBE10921E024DC082
:100A60008091040282FD04C08091050282FF6ECF56
:100A70001092040281E0F816B1F4812F90E0019603
:100A800068E170E00E941412182F602F0E94180471
:100A90008091120281608093120280911302816022
:100AA0008093130219C082E0F816B1F4802F90E011
:100AB00001966CE370E00E941412082F812F602FC2
:100AC0000E94180480911502816080931502809124
:100AD00016028160809316028091050282FF36CF54
:100AE000789410920202109201028091010290917A
:100AF00002028B349105C8F329CF1F910F91FF900B
:100B0000EF900895CF93DF9310921102EC01A2E1D0
:100B1000B2E0E881EE23D1F08E2F81568A3128F49D
:100B2000F0E0E95FFF4FE49108C08E2F80538A30D8
:100B300030F4F0E0EC5AFF4FE491EC9301C01C92CA
:100B40002196119682E0AA31B80719F7DF91CF916B
:100B50000895CF93DF93882309F07AC01092110291
:100B600082E080931402809317028091F60188231B
:100B700061F580911F026AE00E94F411E82FF0E015
:100B8000EC57FF4FE491E093120280911F020E9404
:100B9000F411E92FF0E0EC57FF4FE491E0931302DA
:100BA000809110020E94F411E82FF0E0EC57FF4F03
:100BB000E491E0931502809110020E94F411E92F54
:100BC000F0E0EC57FF4FE4912BC0809110026AE0F7
:100BD0000E94F411E82FF0E0EC57FF4FE491E0930E
:100BE0001202809110020E94F411E92FF0E0EC57FC
:100BF000FF4FE491E093130280911F020E94F411D1
:100C0000E82FF0E0EC57FF4FE491E093150280915C
:100C10001F020E94F411E92FF0E0EC57FF4FE4911E
:100C2000E093160280910D026AE00E94F411E82F11
:100C3000F0E0EC57FF4FE491E093180280910D0231
:100C40000E94F411E92FF0E0EC57FF4FE491E3C06C
:100C5000813009F0E2C080911F02C82FD0E080915E
:100C60000D02E82FF0E0E053F84F80911F0283302F
:100C700010F42C96319720911002109218021092C5
:100C8000190230E02F5F3F4F2E0F3F1FCE01880F1C
:100C9000991F280F391FCF019695879596958795AF
:100CA000280F391FCF0160E971E00E940012260F62
:100CB000371FCF0164E670E00E940012261B370B3D
:100CC000AE014F5F5F4FCA01880F991F840F951FB8
:100CD000880F991F6AE070E00E940012C901860F18
:100CE000971F67E070E00E9400128330B9F08430F3
:100CF00028F4813069F0823070F407C08530A1F0AB
:100D0000853078F08630B9F412C080E091E011C0EF
:100D100087E091E00EC08EE091E00BC086E191E0AB
:100D200008C08FE191E005C088E291E002C08FE247
:100D300091E00E94820578941092020210920102C2
:100D40008091010290910202885E9340C8F3109254
:100D50001502109216021092170280911F0286301F
:100D600079F1873070F4833011F1843028F48130C8
:100D7000C1F08230D9F518C08430E1F08530B1F58A
:100D80001CC0893031F18A3028F48730E1F0883096
:100D900069F51CC08B3019F18B30F0F08C3031F5D7
:100DA00021C088E391E020C08CE391E01DC080E485
:100DB00091E01AC086E491E017C08CE491E014C081
:100DC00080E591E011C085E591E00EC08AE591E0F3
:100DD0000BC080E691E008C085E691E005C08BE697
:100DE00091E002C081E791E00E94820580911002AB
:100DF0006AE00E94F411E82FF0E0EC57FF4FE49115
:100E0000E0931802809110020E94F411E92FF0E0A3
:100E1000EC57FF4FE491E0931902DF91CF910895D1
:100E20000F931F93CF93DF938AE080930702F99982
:100E3000FECF8BE090E092BD81BDF89A80B58093A3
:100E4000F60110E00AE0CBE0D0E001C010E08091B4
:100E50000402882321F480910502882319F000936D
:100E6000070204C0809107028823C9F08091040220
:100E700080FD3FC08091040281FF14C010920402E3
:100E8000112369F48091F601882319F487E791E032
:100E900002C080E891E00E94820511E003C0109238
:100EA0001E0227C08091040282FFD1CF109204025B
:100EB000113061F690E08091F601882309F491E009
:100EC0009093F601992319F487E791E002C080E836
:100ED00091E00E9482058091F601F999FECF1FBA38
:100EE000D2BDC1BD80BD0FB6F894FA9AF99A0FBE73
:100EF000AECFDF91CF911F910F910895EF92FF92A6
:100F00000F931F93CF93DF938AE080930702F999A1
:100F1000FECF8AE090E092BD81BDF89AF0B400E087
:100F20001AE0E12ECAE0D0E001C000E080910402A6
:100F3000882321F480910502882319F0E0920702AA
:100F400004C080910702882369F18091040280FD2A
:100F50006CC08091040281FF28C01092040200231B
:100F600009F5FF2051F089E891E00E948205809107
:100F7000160281608093160204C082E991E00E940B
:100F80008205809117028160809317028091180278
:100F90008160809318028091190281608093190208
:100FA00001E003C010921E0240C08091040282FF43
:100FB000BDCF10920402013009F0B7CF10E0FF203E
:100FC00009F411E0F12E112351F089E891E00E941B
:100FD00082058091160281608093160204C082E926
:100FE00091E00E9482058091170281608093170230
:100FF00080911802816080931802809119028160AB
:1010000080931902F999FECF1FBAD2BDC1BD10BDA0
:101010000FB6F894FA9AF99A0FBE0E94A70180EAD7
:101020009FE061E00E94040281CFDF91CF911F9188
:101030000F91FF90EF9008953F924F925F926F92C1
:101040007F928F929F92AF92BF92CF92DF92EF9258
:10105000FF920F931F938AE080930702F999FECFC6
:1010600089E090E092BD81BDF89A10B520E09AE049
:10107000392E0EE18AE5582EB5E54B2EA0E57A2EE5
:10108000FBE46F2EE6E48E2E71E4A72E6CE3962E21
:1010900057E3B52E42E3D42E3DE2C32E98E2F92E5B
:1010A00083E2E82E01C020E080910402882321F42D
:1010B00080910502882319F03092070209C08091BF
:1010C0000702882329F410921E02F999FECF2DC041
:1010D0008091040280FD91C08091040281FF31C0A3
:1010E000109204022223E9F48BE991E00E94820528
:1010F000812F6AE00E94F411E82FF0E0EC57FF4FD7
:10110000E491E160E0931802812F0E94F411E92F2D
:10111000F0E0EC57FF4FE491E160E093190221E029
:1011200010C010921E02F999FECF1FBA89E090E01C
:1011300092BD81BD10BD0FB6F894FA9AF99A0FBE10
:101140005CC08091040282FD04C08091050282FF90
:10115000ABCF10920402213009F0A5CF1B5F1C35E4
:1011600008F01EE1812F6AE00E94F411E82FF0E000
:10117000EC57FF4FE491E160E0931802812F0E9449
:10118000F411E92FF0E0EC57FF4FE491E160E093B8
:1011900019021F3180F1143210F4E7BC85CF1932E7
:1011A00010F4F7BC81CF1E3210F4C7BC7DCF1333CF
:1011B00010F4D7BC79CF183310F4B7BC75CF1D33FA
:1011C00010F497BC71CF123410F4A7BC6DCF173454
:1011D00010F487BC69CF1C3410F467BC65CF11359F
:1011E00010F477BC61CF163510F447BC5DCF1B35CA
:1011F00011F057BC59CF07BD57CF1F910F91FF90EA
:10120000EF90DF90CF90BF90AF909F908F907F90A6
:101210006F905F904F903F90089581E58CBD089549
:101220009B01AC01F894CA01AA27BB278EBD0DB45F
:1012300007FEFDCFBB27A52F942F832F8EBD0DB4A6
:1012400007FEFDCF2EBD0DB407FEFDCF409A40989E
:1012500078940895AF92BF92CF92DF92EF92FF926F
:101260000F931F93E82FF0E0E057FF4FE49181E0E8
:1012700090E002C0880F991FEA95E2F77C010027F1
:10128000F7FC0095102F209108023091090240913F
:101290000A0250910B02A0E0B0E070E0E1E0AE2E57
:1012A000B12CC12CD12CCB010A2E02C0959587956B
:1012B0000A94E2F780FF11C0FD01E556FF4FE4916B
:1012C000A601950104C0220F331F441F551FEA9544
:1012D000D2F7E22AF32A042B152B1196A830B10578
:1012E00011F7209308023093090240930A025093A9
:1012F0000B02C801B7010E9410091F910F91FF90C6
:10130000EF90DF90CF90BF90AF9008951F920F9213
:101310000FB60F9211242F933F934F935F936F93C8
:101320007F938F939F93AF93BF93EF93FF937894A3
:10133000A8958091FB019091FC0101969093FC018E
:101340008093FB01819708F46CC01092FC0110920D
:10135000FB0180910102909102020196909302029A
:10136000809301028091FA01893010F01092FA0105
:101370008091FA01E82FF0E0EF5EFD4F60810E945E
:101380002A098091FA018F5F8093FA0180911D02F2
:10139000882309F446C08091FF0190910002892BB7
:1013A00009F03FC08091FD019091FE01019690935C
:1013B000FE018093FD018536910598F11092FE01A2
:1013C0001092FD018AEF90E0909387008093860051
:1013D00080918600909187009695879590938B00D9
:1013E00080938A0080918A0090918B00909389006D
:1013F0008093880080911D02807F49F080911D02BA
:101400008F7080931D02809181008D7F08C0809134
:101410001D02806F80931D02809181008260809305
:101420008100FF91EF91BF91AF919F918F917F913B
:101430006F915F914F913F912F910F900FBE0F9041
:101440001F9018958EBD0DB407FEFDCF08954A9BE1
:1014500034C080911B02882309F04CC081E0809346
:101460001B02109200021092FF0182EA91E00E949A
:10147000820589E080931E027894109202021092F5
:1014800001028091010290910202885E9340C8F3AC
:1014900080911C0260910E020E94180478941092B0
:1014A0000202109201028091010290910202885E74
:1014B0009340C8F310921E02089580911B02882366
:1014C000C9F010921B02109200021092FF0180914D
:1014D0001D02882379F085EA90E061E00E94B71050
:1014E00010921D02809181008D7F8093810085B1D3
:1014F000866085B90895BF92CF92DF92EF92FF92F6
:101500000F931F93CF93DF938AE08093070210E03D
:101510000AE0BB24B394B1E0EB2EF12CA3E0CA2E79
:10152000D12CC2E0D0E080910402882321F4809184
:101530000502882319F00093070205C08091070275
:10154000882309F472C08091040280FD15C1809146
:10155000040281FF6DC0109204021123D1F4809126
:10156000F601882311F411E006C08FEA90E061E0F3
:101570000E94B71012E080E00E94A905809112023B
:101580008160809312028091130281608093130224
:101590004FC0113029F48091F601882339F020C022
:1015A0001230E1F48091F6018130A9F48091F601C6
:1015B000882311F011E001C012E080E00E94A9052B
:1015C00080911502816080931502809116028160DE
:1015D000809316022DC0882339F015C0113099F47C
:1015E0008091F601813079F480E00E94A905809114
:1015F00018028160809318028091190281608093A3
:10160000190213E015C083E680931E0280E00E9459
:10161000A9057894109202021092010280910102B1
:10162000909102028C5D9540C8F310921E02A4C0F6
:101630008091040282FD04C08091050282FF73CF75
:1016400010920402113079F580911F028F5F809310
:101650001F0280911F028D3010F010931F0280E056
:101660000E94A9058091F601882359F48091120205
:101670008160809312028091130281608093130233
:101680000AC0809115028160809315028091160234
:1016900081608093160280911F02F999FECF1FBAD4
:1016A000D2BDC1BD53C0123079F5809110028F5F59
:1016B0008093100280911002803210F0B0921002DC
:1016C00080E00E94A9058091F601813059F4809153
:1016D00012028160809312028091130281608093D4
:1016E00013020AC0809115028160809315028091D7
:1016F000160281608093160280911002F999FECF44
:101700001FBAD2BCC1BC22C0133031F580910D028A
:101710008F5F80930D0280910D0264E60E94F411A8
:1017200090930D0280E00E94A905809118028160CB
:101730008093180280911902816080931902809130
:101740000D02F999FECF1FBAF2BCE1BC80BD0FB605
:10175000F894FA9AF99A0FBE8091050282FFE3CEBF
:1017600078941092020210920102809101029091ED
:101770000202CC97D0F3D7CEDF91CF911F910F917A
:10178000FF90EF90DF90CF90BF9008958091F70188
:10179000882309F452C080E88093610010926100B0
:1017A00086E291E061E00E94B7101092F70180E4B8
:1017B0009CE90197F1F700B605FC3FC08EE284B9C1
:1017C00088E48AB989E187B984E38BB991E095B956
:1017D00085E08093680090936B0080E380936D00B8
:1017E000F999FECF89E090E092BD81BDF89A80B56D
:1017F0000E944B0281E58CBD5B984398F999FECF1E
:101800008AE090E092BD81BDF89A80B580930F0286
:101810000E94A701A8950E94270A80E793E061E053
:101820000E94040280EE96E061E00E94040280ECD7
:101830009DE061E00E940402A89508951F920F9216
:101840000FB60F9211242F933F934F935F936F9393
:101850007F938F939F93AF93BF93EF93FF9300B6C4
:1018600005FE3AC08091F701882309F065C05B9AB4
:1018700085B1877D85B95E988CB58F7B8CBD809155
:10188000F9018823F1F020911A02F999FECF1FBACD
:1018900085E090E092BD81BD20BD0FB6F894FA9A24
:1018A000F99A0FBE20912002F999FECF1FBA86E067
:1018B00090E092BD81BD20BD0FB6F894FA9AF99AD6
:1018C0000FBE89E391E061E00E94B71015BC109251
:1018D0000F02109268002BC08091F701882361F1FC
:1018E0008091F9018823F1F020911A02F999FECF35
:1018F0001FBA85E090E092BD81BD20BD0FB6F8947F
:10190000FA9AF99A0FBE20912002F999FECF1FBAD8
:1019100086E090E092BD81BD20BD0FB6F894FA9AA2
:10192000F99A0FBE8FE291E061E00E94B710E0915A
:10193000F401F091F5010995FF91EF91BF91AF91FD
:101940009F918F917F916F915F914F913F912F91D7
:101950000F900FBE0F901F9018951F920F920FB609
:101960000F9211242F933F934F935F936F937F9325
:101970008F939F93AF93BF93EF93FF9380E88093F0
:10198000610010926100809120028F5F809320029D
:10199000809120028C3338F01092200280911A023C
:1019A0008F5F80931A0280911A028C3328F1109273
:1019B0001A0280910C028F5F80930C0220910C021E
:1019C000F999FECF1FBA84E090E092BD81BD20BDA1
:1019D0000FB6F894FA9AF99A0FBE20911A02F99963
:1019E000FECF1FBA85E090E092BD81BD20BD0FB64D
:1019F000F894FA9AF99A0FBE80910C028831B0F0EF
:101A000010920C02809110028F5F8093100220913F
:101A10001002F999FECF1FBA83E090E092BD81BD1C
:101A200020BD0FB6F894FA9AF99A0FBE8091100271
:101A3000803268F5809110028F3181F480911F020D
:101A4000843029F180911F02863009F180911F02B4
:101A50008930E9F080911F028B30C9F0809110022B
:101A60008E3121F480911F02823089F08091100222
:101A70008D3121F580911F02823001F580910D0298
:101A800090E08053984F0E948E018823B9F481E042
:101A90008093100280911F028F5F80931F0220911C
:101AA0001F02F999FECF1FBA82E090E092BD81BD7E
:101AB00020BD0FB6F894FA9AF99A0FBE80911F02D2
:101AC0008D30B8F080910D028F5F80930D0281E020
:101AD00080931F0220910D02F999FECF1FBA81E079
:101AE00090E092BD81BD20BD0FB6F894FA9AF99AA4
:101AF0000FBE8091F701882309F06EC080911E020D
:101B0000882311F58091F801882349F08091200203
:101B100080FF05C08BEA91E00E94820508C0809199
:101B20000C0260911A02409120020E948F02809163
:101B30001B02882321F080911102826003C08091F2
:101B400011028D7F8093110280911B028823E1F0A6
:101B500090911C0280910C029817B1F490910E02A2
:101B600080911A02981781F480912002882361F4F1
:101B70008BE391E061E00E94B71081E080931D0249
:101B8000109200021092FF0180910702882329F031
:101B9000809107028150809307028091060288237A
:101BA00029F0809106028150809306028091FF0106
:101BB00090910002009781F001979093000280932A
:101BC000FF0180FF04C080911102826003C08091F8
:101BD00011028D7F80931102FF91EF91BF91AF9120
:101BE0009F918F917F916F915F914F913F912F9135
:101BF0000F900FBE0F901F90189588E592E090937C
:101C000000028093FF018EE491E061E00E94B71032
:101C100084EB91E00E94820589E080931E02789413
:101C20001092020210920102809101029091020230
:101C3000885E9340C8F310921E0208951F920F927F
:101C40000FB60F9211242F933F934F935F936F938F
:101C50007F938F939F93AF93BF93EF93FF931092D4
:101C60006800789418992AC08091030281FD2BC0E6
:101C700078941092020210920102809101029091D8
:101C800002020A97D0F318991EC00E94DC018091CD
:101C90001D02882319F00E94FD0D15C080910302DA
:101CA0008260809303028091040282608093040228
:101CB00085E491E061E00E94B71005C080910302C5
:101CC0008D7F8093030285E080936800FF91EF9100
:101CD000BF91AF919F918F917F916F915F914F9144
:101CE0003F912F910F900FBE0F901F9018951F924C
:101CF0000F920FB60F9211242F933F934F935F9340
:101D00006F937F938F939F93AF93BF93EF93FF93C3
:101D10001092680078944D9927C08091030280FD4D
:101D200028C0789410920202109201028091010260
:101D3000909102020A97D0F34D9963C00E94DC0192
:101D400080911D028823C9F58091030281608093F0
:101D50000302809104028160809304028BE491E08D
:101D600061E00E94B71005C0809103028E7F8093CE
:101D700003024C993FC08091030282FD42C07894D7
:101D800010920202109201028091010290910202CF
:101D90000A97D0F34C9935C082E0809306021BC0AD
:101DA0004C9B19C00E94DC01809103028B7F8093C1
:101DB000030280911D02882319F00E94FD0D21C0AD
:101DC00088E491E061E00E94B71080910402846091
:101DD0008093040216C080910602882309F780913F
:101DE00003028460809303028091050284608093E3
:101DF000050207C010920502809103028B7F809339
:101E0000030285E080936800FF91EF91BF91AF914D
:101E10009F918F917F916F915F914F913F912F9102
:101E20000F900FBE0F901F901895BF92CF92DF9228
:101E3000EF92FF920F931F9315BC569A5E9884B74A
:101E400014BE90E00E940E1188E10FB6F8948093C2
:101E50006000109260000FBE2FE088E190E00FB6A6
:101E6000F894A895809360000FBE20936000A89519
:101E700011E01093F8011092F9018AE190E00E94BC
:101E8000951084E291E061E00E94B71028E420BF41
:101E900080ED97E00197F1F700B605FE0BC080B723
:101EA000806180BF89E191E061E00E94B7100E94EB
:101EB00019015BC08EE284B92AB989E187B984E34C
:101EC0008BB915B985E08093680010936B0080E3AF
:101ED00080936D005B9886E091E061E00E94B7100E
:101EE00083EF90E061E00E94B710109369001DBB82
:101EF00010921E028AEE90E061E00E94B71081E528
:101F00008CBD8FED90E061E00E94B710F999FECF93
:101F100089E090E092BD81BDF89A80B50E944B02A5
:101F20007894F999FECF8BE090E092BD81BDF89A4C
:101F300080B58093F60182ED90E061E00E94B710D9
:101F40000E94A70180EA9FE061E00E94040287EC02
:101F500090E061E00E94B7100E9419018CEB90E0C4
:101F600061E00E94B7100E94270A87EB90E061E0D1
:101F70000E94B71023E6B22E93E0C92E87E0D82E38
:101F800006E0E02E18E0F12E04E015E0A89500B67A
:101F900005FE03C00E94DA00F9CF8091040280FFA1
:101FA0004EC01092040280911E028430C9F0853028
:101FB00030F4882361F0833009F05EC01CC08630A5
:101FC00061F1863008F1873009F056C02FC00093C8
:101FD0001E028DEB91E00E9482050E949804D6CFEC
:101FE000C0921E0287EC91E00E9482050E940B03C2
:101FF0001092F801CBCF10931E0280ED91E00E9469
:1020000082050E947B0AC2CFE0921E0289ED91E018
:102010000E9482050E941C08B9CFD0921E0282EE57
:1020200091E00E9482050E947E07B0CFF0921E02CE
:102030008BEE91E00E9482050E941007A7CF80914D
:10204000040281FD04C08091040282FF9FCF1092A0
:102050000402B0921E0281E00E94A905A89578941E
:1020600010920202109201028091010290910202EC
:102070008C5D9540C8F3A89510921E0287CF1F92E1
:102080000F920FB60F9211242F933F934F935F93AC
:102090006F937F938F939F93AF93BF93EF93FF9330
:1020A00089E60E94A21029B17894789410920202D5
:1020B0001092010280910102909102020A97D0F3DE
:1020C00089B1247030E090E084709070281739074F
:1020D00011F40E94270AFF91EF91BF91AF919F9158
:1020E0008F917F916F915F914F913F912F910F90C1
:1020F0000FBE0F901F90189506C090E000009F5FE4
:102100009E31E1F781508823C1F7089548EC50E0F3
:1021100009C020E137E2FA013197F1F72150304050
:10212000D1F781508823A9F708959093C500809333
:10213000C40088E18093C1008EE08093C200519A70
:1021400050980895982F8091C00085FFFCCF909300
:10215000C60080E090E008958091C00087FFFCCF2A
:102160008091C60008958091C00080780895AC01E8
:1021700020E007C08091C00085FFFCCF3093C600EF
:102180002F5FFA01E20FF11D3491332399F7662393
:1021900071F08091C00085FFFCCF8AE08093C6007B
:1021A0008091C00085FFFCCF8DE08093C60008952C
:1021B000FC0107C08091C00085FFFCCF3196909351
:1021C000C60090819923B1F70895282F982F9295F2
:1021D0009F709A3030F48091C00085FFFCCF905DF5
:1021E00005C08091C00085FFFCCF995A9093C6002E
:1021F000822F90E08F7090700A973CF48091C0001D
:1022000085FFFCCF2F70205D06C08091C00085FF48
:10221000FCCF2F70295A2093C60008951F93182FC2
:10222000892F0E94E510812F0E94E5101F910895CB
:10223000EF92FF920F931F937B018C01C801AA2795
:10224000BB270E940E11C7010E940E111F910F9112
:10225000FF90EF9008950F931F93CF93DF938C011E
:10226000E0E1F7E240E0C0E0D0E0C801BF010E9439
:102270000012262F662329F4442319F4E130F105D6
:1022800049F48091C00085FFFCCF205D2093C600FB
:10229000205341E0CF016AE070E00E9400122196D5
:1022A000C530D10571F0822F90E09C012E9FC001B6
:1022B0002F9F900D3E9F900D1124081B190BFB01C1
:1022C000D4CFDF91CF911F910F9108954F925F92DC
:1022D0006F927F928F929F92AF92BF92CF92DF9236
:1022E000EF92FF920F931F93CF93DF934B015C010B
:1022F000E12C9AECF92E9AE9092F9BE3192F44243B
:10230000C0E0D0E0C501B401A80197010E942712E6
:10231000D22E222341F4442031F481E0E816F10466
:102320000105110561F48091C00085FFFCCF80E3B9
:10233000D80ED092C60080EDD80E44244394C80134
:10234000B7012AE030E040E050E00E942712C22EA0
:10235000732E642E552E2196CA30D105A9F06D2D0D
:1023600070E080E090E0A80197010E94D511861AE4
:10237000970AA80AB90A2C2D372D462D552DC901CB
:10238000DA017C018D01BECFDF91CF911F910F91BA
:10239000FF90EF90DF90CF90BF90AF909F908F9085
:1023A0007F906F905F904F900895629FD001739FD0
:1023B000F001829FE00DF11D649FE00DF11D929FE1
:1023C000F00D839FF00D749FF00D659FF00D992720
:1023D000729FB00DE11DF91F639FB00DE11DF91F44
:1023E000BD01CF0111240895991B79E004C0991F04
:1023F000961708F0961B881F7A95C9F7809508955F
:10240000AA1BBB1B51E107C0AA1FBB1FA617B7071A
:1024100010F0A61BB70B881F991F5A95A9F7809536
:102420009095BC01CD01089597FB092E07260AD08F
:1024300077FD04D0E5DF06D000201AF47095619591
:102440007F4F0895F6F7909581959F4F0895A1E2EB
:102450001A2EAA1BBB1BFD010DC0AA1FBB1FEE1F1E
:10246000FF1FA217B307E407F50720F0A21BB30B69
:10247000E40BF50B661F771F881F991F1A9469F7E5
:1024800060957095809590959B01AC01BD01CF0141
:10249000089597FB092E05260ED057FD04D0D7DFEF
:1024A0000AD0001C38F450954095309521953F4F47
:1024B0004F4F5F4F0895F6F7909580957095619511
:0C24C0007F4F8F4F9F4F0895F894FFCF7F
:1024CC0073756E646179006D6F6E646179007475FB
:1024DC006573646179007765646E73646179007407
:1024EC0068757273646179006672696461790073EE
:1024FC0061747572646179006A616E006665620070
:10250C006D6172636800617072696C006D61790055
:10251C006A756E65006A756C790061756773740015
:10252C0073657074006F63746F62006E6F76656DA7
:10253C0000646563656D007573612D3132687200DE
:10254C006575722D3234687200766F6C206869671D
:10255C006800766F6C20206C6F770062726974650E
:10256C002000616C61726D206F6E00202020202095
:10257C0020202000736E6F6F7A696E67007365742C
:10258C0020616C61726D007365742074696D6500F7
:10259C00736574206461746500736574206272697C
:1025AC00740073657420766F6C20007365742072F0
:0425BC0065676E00E1
:00000001FF
